:100000000C9462000C948A000C948A000C948A0070
:100010000C948A000C948A000C948A000C948A0038
:100020000C948A000C948A000C948A000C948A0028
:100030000C948A000C948A000C948A000C948A0018
:100040000C9490030C948A000C945E030C94380377
:100050000C948A000C948A000C948A000C948A00F8
:100060000C948A000C948A000000000024002700F1
:100070002A0000000000250028002B0000000000DE
:1000800023002600290004040404040404040202DA
:100090000202020203030303030301020408102007
:1000A0004080010204081020010204081020000012
:1000B0000008000201000003040700000000000027
:1000C0000000DA0311241FBECFEFD8E0DEBFCDBFA2
:1000D00022E0A8E4B1E001C01D92A33AB207E1F723
:1000E00011E0A0E0B1E0E4E3FDE002C005900D9274
:1000F000A834B107D9F710E0C2E6D0E004C02197D8
:10010000FE010E949206C136D107C9F70E948704FA
:100110000C9498060C940000E1E5F1E0A089B18907
:1001200082E08C93A485B5851C92A685B7858FEC5B
:100130008C93108EA489B58986E08C93A289B389AB
:100140008C9180618C93A289B3898C9188608C9307
:10015000A289B3898C9180688C930288F389E02D01
:1001600080818F7D8083089596E0899FD00111243E
:10017000AC5CBD4F90967C936E935F9791E09196A7
:100180009C939197E091A102F091A2029091A0021C
:10019000992339F0309751F0811108C080915002B5
:1001A0000994309719F05C968C91FACF0895AF922C
:1001B000BF92CF92DF92EF92FF920F931F93CF9354
:1001C000DF936C017B018B01040F151FEB015E01B6
:1001D000AE18BF08C017D10759F06991D601ED914B
:1001E000FC910190F081E02DC6010995892B79F7EA
:1001F000C501DF91CF911F910F91FF90EF90DF909C
:10020000CF90BF90AF900895FC01538D448D252F62
:1002100030E0842F90E0821B930B541710F0CF96A0
:10022000089501970895FC01918D828D981761F0D2
:10023000A28DAE0FBF2FB11D5D968C91928D9F5FE9
:100240009F73928F90E008958FEF9FEF0895FC01C8
:10025000918D828D981731F0828DE80FF11D858D7B
:1002600090E008958FEF9FEF0895FC01918D228D0E
:10027000892F90E0805C9F4F821B91098F73992793
:10028000089581E591E00E94350121E0892B09F470
:1002900020E0822F089580E090E0892B29F00E94D1
:1002A000410181110C9400000895FC01A48DA80F58
:1002B000B92FB11DA35ABF4F2C91848D90E00196A8
:1002C0008F739927848FA689B7892C93A089B189C8
:1002D0008C91837080648C93938D848D981306C069
:1002E0000288F389E02D80818F7D80830895EF92CD
:1002F000FF920F931F93CF93DF93EC0181E0888FE0
:100300009B8D8C8D98131AC0E889F989808185FFAF
:1003100015C09FB7F894EE89FF896083E889F98951
:1003200080818370806480839FBF81E090E0DF9153
:10033000CF911F910F91FF90EF900895F62E0B8DA6
:1003400010E00F5F1F4F0F731127E02E8C8D8E1161
:100350000CC00FB607FCFACFE889F989808185FFC8
:10036000F5CFCE010E945501F1CFEB8DEC0FFD2FA3
:10037000F11DE35AFF4FF0829FB7F8940B8FEA8983
:10038000FB8980818062CFCFCF93DF93EC01888D92
:100390008823B9F0AA89BB89E889F9898C9185FD00
:1003A00003C0808186FD0DC00FB607FCF7CF8C918E
:1003B00085FFF2CF808185FFEDCFCE010E945501F0
:1003C000E9CFDF91CF910895833081F028F4813017
:1003D00099F08230A9F008958730A9F08830C9F0EB
:1003E0008430B1F4809180008F7D03C080918000C3
:1003F0008F7780938000089584B58F7784BD0895AA
:1004000084B58F7DFBCF8091B0008F778093B00053
:1004100008958091B0008F7DF9CFCF93DF93282F7F
:1004200030E0F901E255FF4F8491F901E656FF4FA4
:10043000D491F901EA57FF4FC491CC23A1F0811167
:100440000E94E401EC2FF0E0EE0FFF1FE458FF4F95
:10045000A591B491EC91ED2381E090E009F480E066
:10046000DF91CF91089580E090E0FACF862F0C9431
:100470000D021F93CF93DF93282F30E0F901E2554F
:10048000FF4F8491F901E656FF4FD491F901EA57E5
:10049000FF4FC491CC23A9F0162F81110E94E401D3
:1004A000EC2FF0E0EE0FFF1FEE58FF4FA591B49137
:1004B0008FB7F894EC91111108C0D095DE23DC932E
:1004C0008FBFDF91CF911F910895DE2BF8CF862F3C
:1004D000642F0C943902CF93DF9390E0FC01E65631
:1004E000FF4F24918A579F4FFC0184918823C9F0C4
:1004F00090E0880F991FFC01E859FF4FA591B49136
:10050000FC01EE58FF4FC591D49161110DC09FB70A
:10051000F8948C91209582238C93888128232883BA
:100520009FBFDF91CF910895623051F49FB7F89447
:100530003C91822F809583238C93E8812E2BEFCFE3
:100540008FB7F894EC912E2B2C938FBFEACF862F88
:10055000642F0C946B023FB7F89480914D019091F9
:100560004E01A0914F01B091500126B5A89B05C046
:100570002F3F19F00196A11DB11D3FBFBA2FA92F22
:10058000982F8827BC01CD01620F711D811D911D1F
:1005900042E0660F771F881F991F4A95D1F708958B
:1005A0002FB7F8946091490170914A0180914B01F5
:1005B00090914C012FBF08950F931F93CF93DF931A
:1005C000C82FD62F86E0C89FF0011124EC5CFD4FA8
:1005D00011A2878D90A181309105F1F058F0823001
:1005E0009105F1F1039709F440C0DF91CF911F917C
:1005F0000F9108956623C9F361E070E08C2F0E948B
:10060000B4000E94D00260938C0270938D0280939C
:100610008E0290938F02E9CF0E94D00200918C024B
:1006200010918D0220918E0230918F02AB01BC019E
:10063000401B510B620B730B80919E0290919F02A5
:10064000B0E0A0E084179507A607B70748F462E07A
:1006500070E08C2FDF91CF911F910F910C94B4001B
:1006600063E070E0D111C1CFF4CF70E060E0F1CF72
:100670001F920F920FB60F9211242F933F934F9317
:100680005F936F937F938F939F93AF93BF93EF93FA
:10069000FF9381E591E00E945501FF91EF91BF9199
:1006A000AF919F918F917F916F915F914F913F910A
:1006B0002F910F900FBE0F901F9018951F920F92C1
:1006C0000FB60F9211242F938F939F93EF93FF9365
:1006D000E0916101F09162018081E0916701F09108
:1006E000680182FD1BC0908180916A018F5F8F73CA
:1006F00020916B01821741F0E0916A01F0E0EF5A1E
:10070000FE4F958F80936A01FF91EF919F918F919A
:100710002F910F900FBE0F901F9018958081F4CFEE
:100720001F920F920FB60F9211242F933F938F9326
:100730009F93AF93BF938091490190914A01A091FB
:100740004B01B0914C013091480123E0230F2D372C
:1007500058F50196A11DB11D2093480180934901D0
:1007600090934A01A0934B01B0934C0180914D01AD
:1007700090914E01A0914F01B09150010196A11DA1
:10078000B11D80934D0190934E01A0934F01B09302
:100790005001BF91AF919F918F913F912F910F90F9
:1007A0000FBE0F901F90189526E8230F0296A11DEB
:1007B000B11DD2CF109254011092530188EE93E0F4
:1007C000A0E0B0E08093550190935601A0935701AB
:1007D000B09358018CE191E09093520180935101C4
:1007E00085EC90E090935E0180935D0184EC90E055
:1007F0009093600180935F0180EC90E090936201A0
:100800008093610181EC90E0909364018093630197
:1008100082EC90E0909366018093650186EC90E015
:10082000909368018093670110926A0110926B01A6
:1008300010926C0110926D011092F4011092F5016A
:100840001092F6011092F7011092F8011092F9013E
:100850001092FA011092FB011092FC011092FD011E
:100860001092FE011092FF011092000210920102FC
:1008700010920202109203021092360210923A0273
:100880001092390210923B028EE291E09093350271
:1008900080933402E0E5F2E0108214821382158224
:1008A000369682E0EC38F807B9F784E091E090934F
:1008B00097028093960280E091E090939902809352
:1008C000980284E080939A0280939B0288E091E0F2
:1008D00090939502809394028AE090E090939D0219
:1008E00080939C0284EF91E090939F0280939E02FC
:1008F0001092A2021092A102109290021092910204
:1009000010929202109293021092A002089578948D
:1009100084B5826084BD84B5816084BD85B5826004
:1009200085BD85B5816085BD80916E0081608093B5
:100930006E0010928100809181008260809381001E
:10094000809181008160809381008091800081602E
:10095000809380008091B10084608093B100809189
:10096000B00081608093B00080917A0084608093B1
:100970007A0080917A00826080937A0080917A0078
:10098000816080937A0080917A00806880937A00F9
:100990001092C10010923002109231021092320275
:1009A000109233021092F0011092F1011092F201B4
:1009B0001092F3010E94D0026B017C014B015C019B
:1009C00028EB820E2BE0921EA11CB11C0E94D002CB
:1009D0006C157D058E059F0528F086169706A806DE
:1009E000B906A0F70E94AB026B017C0168EE862E6F
:1009F00063E0962EA12CB12C0E94AB026C197D09EC
:100A00008E099F09683E734081059105A8F351E066
:100A1000851A9108A108B10888EEC80E83E0D81E97
:100A2000E11CF11C81149104A104B10429F70E9476
:100A30008C000E94D0026093F0017093F1018093CA
:100A4000F2019093F30140E150E064E371E081E54D
:100A500091E00E94D7000E94D0026B017C014B0103
:100A60005C01FAE08F0E911CA11CB11C0E94D00207
:100A70006C157D058E059F0528F086169706A8063D
:100A8000B906A0F781E0809304020E948C00812CBB
:100A9000912C5401839422242A94322C50E0652E08
:100AA00050E0752E21E02093A0020E94D002009118
:100AB0009002109191022091920230919302AB0129
:100AC000BC01401B510B620B730B80919C029091F7
:100AD0009D02B0E0A0E084179507A607B70708F0CD
:100AE0000FC1C0E080919A02C81760F4E0919602AD
:100AF000F0919702EC0FF11D62E080810E946B0281
:100B0000CF5FF0CF512C80919B02581608F05FC048
:100B1000052D10E0E0919802F0919902E00FF11F8D
:100B200061E080810E946B02E0919802F09199024D
:100B3000E00FF11F60E080810E943902D501C401FD
:100B4000052C04C0880F991FAA1FBB1F0A94D2F757
:100B50006C017C01E094F094412C80919A0248163B
:100B6000F8F4C42DD0E0E0919602F0919702EC0FDA
:100B7000FD1F80810E940D022496CC0FDD1FCC5CEE
:100B8000DD4F892B41F4888199818C299D29998396
:100B900088834394E2CF888199818E219F21F7CF6A
:100BA000E0919802F0919902E00FF11F61E08081DD
:100BB0000E9439028091980290919902080F191FA2
:100BC00060E0F80180810E946B0253949CCF04E3A3
:100BD00012E0E8018F8D98A1892B21F41C8E3E8EA6
:100BE0002D8E19A22696F2E0C037DF0799F7F12C77
:100BF00080919A02F81608F053C0E12CCF2CD12C2A
:100C0000CC0CDD1CC601845C9D4F6C0120919B02C5
:100C1000E21608F043C0F601608171810E2C02C01B
:100C2000769567950A94E2F7F29E900111242E0DB5
:100C3000311DE4E3F2E080E0458D568D2417350741
:100C400009F46EC08F5F36968A30B1F760FF24C01A
:100C5000E4E3F2E090E080E0448D411118C0E091BF
:100C60009402F0919502E20FF31F408156E0589FE5
:100C7000F001599FF00D1124EC5CFD4F448F368F2D
:100C8000258F10A2178E61E00E94DC0205C001963C
:100C900036968A30910501F7E394B8CFF394A8CF44
:100CA000F12CF80181A18111F82E0A5F1F4FC017A6
:100CB000D107B9F70E94D00260939002709391021D
:100CC0008093920290939302FF20D1F0809155027D
:100CD0008823B1F08091530290915402019781F4DE
:100CE0006091500261110FC06114710409F4DACEF1
:100CF0000E944101882309F4D5CE0E940000D2CE83
:100D00001092A002F1CF81E591E00E94770142E0CC
:100D100050E065E471E081E591E00E94D700E4CF06
:100D20006170B2CFEE0FFF1F0590F491E02D099492
:040D3000F894FFCF65
:100D340009080706050403023132334134353642CB
:100D44003738394323302A44000000007701D700A4
:100D54000401C40135011301270100000000A702AA
:100D640067023602564D4450565F317C315F564D12
:080D74004450560A000D0A006C
:00000001FF
