:100000000C9458000C9480000C9480000C94800098
:100010000C9480000C9480000C9480000C94800060
:100020000C9480000C9480000C9480000C94800050
:100030000C9480000C9480000C9480000C94800040
:100040000C9441050C9480000C940F050C94E90469
:100050000C9480000C9480000C9480000C94800020
:100060000C948B050C9480000000000025002800F3
:100070002B00040404040404040402020202020229
:10008000030303030303010204081020408001025C
:1000900004081020010204081020000000080002DB
:1000A0000100000304070000000000000000AA0691
:1000B00011241FBECFEFD8E0DEBFCDBF23E0A6E8FE
:1000C000B1E001C01D92A434B207E1F711E0A0E055
:1000D000B1E0E2E5F1E102C005900D92A638B1076A
:1000E000D9F710E0C8E5D0E004C02197FE010E94D6
:1000F000A108C735D107C9F70E9404070C94A708C7
:100100000C940000CF92DF92EF92FF920F931F9317
:100110002FB7F894C0904502D0904602E090470275
:10012000F09048022FBF6C0D7D1D8E1D9F1D4FB797
:10013000F8940091450210914602209147023091B7
:1001400048024FBF0C151D052E053F0528F060170E
:1001500071078207930758F71F910F91FF90EF9057
:10016000DF90CF900895AF92BF92CF92DF92EF923F
:10017000FF920F931F93CF93DF936C017B018B0151
:10018000040F151FEB015E01AE18BF08C017D107A1
:1001900059F06991D601ED91FC910190F081E02D2B
:1001A000C6010995892B79F7C501DF91CF911F9180
:1001B0000F91FF90EF90DF90CF90BF90AF90089598
:1001C000089508950895FC01538D448D252F30E046
:1001D000842F90E0821B930B541710F0CF96089554
:1001E00001970895FC01918D828D981761F0A28D81
:1001F000AE0FBF2FB11D5D968C91928D9F5F9F7347
:10020000928F90E008958FEF9FEF0895FC01918DFC
:10021000828D981731F0828DE80FF11D858D90E069
:1002200008958FEF9FEF0895FC01918D228D892F06
:1002300090E0805C9F4F821B91098F7399270895EE
:1002400089E492E00E94140121E0892B09F420E066
:10025000822F089580E090E0892B29F00E942001F0
:1002600081110C9400000895FC01A48DA80FB92FF2
:10027000B11DA35ABF4F2C91848D90E001968F73CE
:100280009927848FA689B7892C93A089B1898C91ED
:10029000837080648C93938D848D981306C002883C
:1002A000F389E02D80818F7D80830895EF92FF9206
:1002B0000F931F93CF93DF93EC0181E0888F9B8D89
:1002C0008C8D98131AC0E889F989808185FF15C043
:1002D0009FB7F894EE89FF896083E889F989808166
:1002E0008370806480839FBF81E090E0DF91CF9135
:1002F0001F910F91FF90EF900895F62E0B8D10E057
:100300000F5F1F4F0F731127E02E8C8D8E110CC0C5
:100310000FB607FCFACFE889F989808185FFF5CF10
:10032000CE010E943401F1CFEB8DEC0FFD2FF11DBA
:10033000E35AFF4FF0829FB7F8940B8FEA89FB894D
:1003400080818062CFCFCF93DF93EC01888D8823AB
:10035000B9F0AA89BB89E889F9898C9185FD03C028
:10036000808186FD0DC00FB607FCF7CF8C9185FF0D
:10037000F2CF808185FFEDCFCE010E943401E9CF1D
:10038000DF91CF91089590E0FC01E656FF4F249154
:10039000FC01EA57FF4F3491FC01EE58FF4FE49106
:1003A000EE23C9F0222339F0233001F1A8F42130E3
:1003B00019F1223029F1F0E0EE0FFF1FE859FF4F4D
:1003C000A591B4918FB7F894EC91611126C0309546
:1003D0003E233C938FBF08952730A9F02830C9F001
:1003E000243049F7809180008F7D03C08091800088
:1003F0008F7780938000DFCF84B58F7784BDDBCF8C
:1004000084B58F7DFBCF8091B0008F778093B00053
:10041000D2CF8091B0008F7DF9CF3E2BDACF3FB79E
:10042000F8948091390290913A02A0913B02B091E8
:100430003C0226B5A89B05C02F3F19F00196A11DCF
:10044000B11D3FBFBA2FA92F982F8827BC01CD011E
:10045000620F711D811D911D42E0660F771F881F7D
:10046000991F4A95D1F708958F929F92AF92BF92AC
:10047000CF92DF92EF92FF926B017C010E940F02FC
:100480004B015C01C114D104E104F104B9F00E94F4
:100490000F02681979098A099B09683E7340810532
:1004A000910580F321E0C21AD108E108F10888EE35
:1004B000880E83E0981EA11CB11CE4CFFF90EF9042
:1004C000DF90CF90BF90AF909F908F900895089548
:1004D0002091C701260F3327331F21323105ECF459
:1004E00020911002FC0190E080E0243069F082E06D
:1004F0000895A091C7012191AC0149555E4FA40F09
:10050000B52FB11D2C930196861798F38091C701E2
:10051000680F6093C70180E0089581E0089510920C
:10052000100281E080930F021092EA0161E082E103
:100530000E94C30161E083E10E94C301E9EBF0E0A6
:1005400080818E7F808380818D7F808388E480930B
:10055000B80085E48093BC000895CF93DF9391E0C9
:100560009093A6018823B9F0C091B800D091BA0049
:100570008091BC008A7B8093BC0060E082E10E9495
:10058000C30160E083E10E94C3010E948F02D09307
:10059000BA00C093B800DF91CF910895E091440272
:1005A00080914302E81730F4F0E0EA57FE4F808173
:1005B00090E008958FEF9FEF08959091440280910D
:1005C00043022FEF3FEF981748F4E92FF0E0EA5786
:1005D000FE4F208130E09F5F90934402C90108954F
:1005E0008091430290914402891B990B0895CF9208
:1005F000DF92EF92FF920F931F93CF93DF937C01D3
:10060000CB018A0120911602222389F0EB016B01B4
:10061000C40ED51ECC15DD0569F06991D701ED91A9
:10062000FC910190F081E02DC7010995F3CF642F73
:100630000E946802C801DF91CF911F910F91FF9036
:10064000EF90DF90CF900895CF93DF931F92CDB7B7
:10065000DEB76983209116022223F9F0209141022E
:10066000203258F021E030E0FC013383228390E017
:1006700080E00F90DF91CF91089580914202E82FA2
:10068000F0E0E95EFD4F998190838F5F8093420295
:100690008093410281E090E0ECCF61E0CE010196D1
:1006A0000E946802F7CFCF92DF92EF92FF920F93F2
:1006B0001F93CF93DF93FC01C48121E020931602A6
:1006C000C093370210924202109241028385682B38
:1006D00086EE92E00E942403D0914102D13208F0CC
:1006E00092C00E940F026B017C0180911002811167
:1006F00065C082E08093100281E080930F028FEF4B
:1007000080930E0210920D02D0930C02A7E1B2E08A
:10071000ECEEF1E080E0D81385C01092EB018091FF
:10072000EB01CC0FC82BC093EB018091EA01813023
:1007300009F07CC01092EA010E940F026B017C015B
:100740008091EB018093BB00809112029091130283
:10075000A0911402B0911502892B8A2B8B2B99F052
:100760000E940F02009112021091130220911402B4
:10077000309115026C197D098E099F09061717071C
:1007800028073907E0F18091BC0083FDD9CF85ECC3
:100790008093BC000E940F026B017C0180911002CB
:1007A000823009F445C080910E028F3F61F1809143
:1007B0000E02803241F180910E0225C0809112021A
:1007C00090911302A0911402B0911502892B8A2BEB
:1007D0008B2B09F48ACF0E940F0200911202109114
:1007E000130220911402309115026C197D098E09B3
:1007F0009F09061717072807390708F076CF809159
:1008000011020E94AD021092420210924102109217
:100810001602DF91CF911F910F91FF90EF90DF9023
:10082000CF9008959D9191938F5F75CF85EEB0CF56
:100830008091120290911302A0911402B0911502BE
:10084000892B8A2B8B2B09F4A9CF0E940F020091D0
:1008500012021091130220911402309115026C19AA
:100860007D098E099F09061717072807390708F021
:1008700095CFC5CF90E080E008950F931F93CF935D
:100880008C01C62F0E9453036C2F6460C8010E9424
:1008900053036C2F6B7FC8010E94530383EC90E0DD
:1008A0000197F1F7CF911F910F9108950F931F9327
:1008B000CF93DF938C01D62FC42F607F642B0E94CF
:1008C0003D0480E1D89FB00111246C2BC801DF9159
:1008D000CF911F910F910C943D0440E061E088E3BB
:1008E00093E00E9456048BE39FE10197F1F708958E
:1008F000CF93DF93CDB7DEB728970FB6F894DEBF5E
:100900000FBECDBF98E0E0E0F1E0DE01119601906E
:100910000D929A95E1F790914003891710F08FEFAF
:10092000890F90E0880F991F21E030E02C0F3D1FC8
:10093000820F931FFC016081615F606840E088E383
:1009400093E028960FB6F894DEBF0FBECDBFDF91BF
:10095000CF910C94560441E00E94560481E090E04F
:10096000089585ED8093BC0080911202909113024E
:10097000A0911402B09115020796A11DB11D23E0AC
:10098000B695A795979587952A95D1F72091BC00A4
:1009900024FD03C01092100208954091120250915C
:1009A00013026091140270911502452B462B472BC0
:1009B00069F30097A105B10541F025E32A95F1F708
:1009C00000000197A109B109E1CF809111020C94B7
:1009D000AD021F920F920FB60F9211242F933F93E7
:1009E0004F935F936F937F938F939F93AF93BF9337
:1009F000EF93FF9389E492E00E943401FF91EF911D
:100A0000BF91AF919F918F917F916F915F914F9126
:100A10003F912F910F900FBE0F901F9018951F922E
:100A20000F920FB60F9211242F938F939F93EF93F2
:100A3000FF93E0915902F0915A028081E0915F02A8
:100A4000F091600282FD1BC09081809162028F5FF5
:100A50008F7320916302821741F0E0916202F0E00F
:100A6000E75BFD4F958F80936202FF91EF919F911D
:100A70008F912F910F900FBE0F901F90189580812E
:100A8000F4CF1F920F920FB60F9211242F933F9322
:100A90008F939F93AF93BF938091450290914602AD
:100AA000A0914702B09148023091380223E0230F11
:100AB0002D3758F50196A11DB11D20933802809362
:100AC000450290934602A0934702B093480280915A
:100AD000390290913A02A0913B02B0913C020196FA
:100AE000A11DB11D8093390290933A02A0933B025D
:100AF000B0933C02BF91AF919F918F913F912F9105
:100B00000F900FBE0F901F90189526E8230F0296A6
:100B1000A11DB11DD2CF1F920F920FB60F921124BB
:100B20002F933F934F935F936F937F938F939F93F5
:100B3000AF93BF93EF93FF938091B900887F803686
:100B400009F44AC0F0F5883209F4A7C018F58031DD
:100B500009F49BC0B8F4882309F4F9C0883009F47B
:100B600094C0FF91EF91BF91AF919F918F917F9131
:100B70006F915F914F913F912F910F900FBE0F900A
:100B80001F901895883109F488C0803251F78093FE
:100B90000E0214C0803409F49DC040F48033B9F3D0
:100BA0008833F9F680930E0285ECB0C0803509F4E5
:100BB00085C0883509F496C0883499F60E94B1043E
:100BC000D0CF883909F48CC038F5883729F050F433
:100BD000883611F0803729F683E080931002109256
:100BE000E90157C0883809F47BC0803919F0803892
:100BF00009F0B7CF8091E901803208F071C0E0912F
:100C0000E90181E08E0F8093E9018091BB00F0E063
:100C1000E753FE4F80833DC0803B39F0E0F4803ADB
:100C200009F479C0883A09F09CCF84E080931002DF
:100C30001092C8011092C701E0913F02F09140026A
:100C400009958091C70181110FC081E08093C70190
:100C50001092A70109C0803C09F4A6CF883C09F492
:100C6000A3CF883B09F07DCFE091C80181E08E0FD2
:100C70008093C801F0E0E955FE4F80818093BB006E
:100C80009091C8018091C70129C08091EB018093A8
:100C9000BB0085EC8093BC0064CF90910D028091E5
:100CA0000C02981758F5E0910D0281E08E0F8093A9
:100CB0000D02F0E0E451FE4F8081E9CFE0910D029A
:100CC00081E08E0F80930D028091BB00F0E0E45133
:100CD000FE4F808390910D0280910C029817C8F20C
:100CE00085E8D8CFE0910D0281E08E0F80930D0250
:100CF0008091BB00F0E0E451FE4F808380910F02B1
:100D000081115CCF81E08093EA0184EA8093BC008A
:100D10001092100226CF85EC8093BC001092100236
:100D20008091E901803230F4E091E901F0E0E7538D
:100D3000FE4F10826091E90170E0E0913D02F09178
:100D40003E0289EC91E009951092E9010ACF1092D8
:100D50000E0234CFE9E4F2E01382128288EE93E0CF
:100D6000A0E0B0E084839583A683B78322E431E0DA
:100D70003183208325EC30E03587248724EC30E074
:100D80003787268720EC30E0318B208B21EC30E058
:100D9000338B228B22EC30E0358B248B26EC30E039
:100DA000378B268B118E128E138E148EE6EEF2E0A8
:100DB0001382128284839583A683B78384E591E0AE
:100DC00091838083E2EFF2E016821782108611860B
:100DD000128613861486158616861786108A118A3F
:100DE000128A138A148A158AE8E3F3E013821282C6
:100DF00086E691E09183808387E2848380E1818726
:100E000082E0828713860895789484B5826084BDD9
:100E100084B5816084BD85B5826085BD85B58160FE
:100E200085BD80916E00816080936E00109281007C
:100E30008091810082608093810080918100816037
:100E400080938100809180008160809380008091F8
:100E5000B10084608093B1008091B0008160809384
:100E6000B00080917A00846080937A0080917A004B
:100E7000826080937A0080917A00816080937A000A
:100E800080917A00806880937A001092C10010925D
:100E900034031092350310923603109237031092E8
:100EA000F4021092F5021092F6021092F70268EB2B
:100EB0007BE080E090E00E94820068EE73E080E0DA
:100EC00090E00E943402E0915902F0915A0282E0CF
:100ED0008083E0915502F09156021082E091570212
:100EE000F091580280E1808310926102E0915D02EE
:100EF000F0915E0286E08083E0915B02F0915C02FB
:100F0000808180618083E0915B02F0915C0280814E
:100F100088608083E0915B02F0915C028081806850
:100F20008083E0915B02F0915C0280818F7D808301
:100F30002FB7F8948091450290914602A091470204
:100F4000B09148022FBF8093F4029093F502A093D2
:100F5000F602B093F70240E150E06EE671E089E4FA
:100F600092E00E94B3006AE070E080E090E00E94AE
:100F7000820081E0809308032FB7F89480914502A6
:100F800090914602A0914702B09148022FBF8093F2
:100F9000F4029093F502A093F602B093F70246E0B4
:100FA00050E06FE771E089E492E00E94B300109294
:100FB00044021092430210924202109241020E9497
:100FC0008F0280EE90E09093400280933F0281EE8A
:100FD00090E090933E0280933D0210923D038091F9
:100FE0004203823018F098E090933D0380934003D1
:100FF00062E370E080E090E00E943402609143037D
:1010000088E393E00E94530368EE73E080E090E091
:101010000E94340260E388E393E00E943D04CBE445
:10102000D6E4CE010197F1F760E388E393E00E94F4
:101030003D042197F1F760E388E393E00E943D04CB
:1010400083E592E00197F1F760E288E393E00E9484
:101050003D0460913D03606240E088E393E00E94BC
:10106000560484E080933E0340E06CE088E393E024
:101070000E9456040E946D0482E080933F0340E08A
:1010800066E088E393E00E94560440E062E088E373
:1010900093E00E9456048BE39FE10197F1F788E00B
:1010A0008093430360E088E393E00E94530302E2ED
:1010B00011E080E0E82E80E0F82E80E00E947804C5
:1010C000C3E2D1E040E068E188E393E00E94560487
:1010D000699141E088E393E00E94560464EF71E077
:1010E00080E090E00E94340281E0CD33D80751F7D0
:1010F0000E946D0481E00E947804C8E0D1E040E0E5
:1011000068E188E393E00E945604699141E088E336
:1011100093E00E94560464EF71E080E090E00E944A
:1011200034020C171D0759F70E946D04E114F104F5
:1011300021F20E942001882309F4BFCF0E94000001
:10114000BCCFEE0FFF1F0590F491E02D0994F894A9
:02115000FFCFCF
:10115200000040001400540068656C6C6F2C20770E
:101162006F726C642120202020202020202020204B
:101172002020002053756E466F756E6465722020C4
:1011820020202020202020202020202020000000BD
:1011920000005601B300E300A3011401F2000601AE
:1011A200000000002403F7023A04E200F002DD022C
:1011B200CE0200000000AB04B3003A046702564DB1
:1011C2004450565F317C315F564D4450560A0056AA
:0611D2004D4450525F0085
:00000001FF
