:100000000C9462000C948A000C948A000C948A0070
:100010000C948A000C948A000C948A000C948A0038
:100020000C948A000C948A000C948A000C948A0028
:100030000C948A000C948A000C948A000C948A0018
:100040000C9476070C948A000C9444070C941E07B9
:100050000C948A000C948A000C948A000C948A00F8
:100060000C94C0070C948A000000000024002700B4
:100070002A0000000000250028002B0000000000DE
:1000800023002600290004040404040404040202DA
:100090000202020203030303030301020408102007
:1000A0004080010204081020010204081020000012
:1000B0000008000201000003040700000000000027
:1000C0000000DF0811241FBECFEFD8E0DEBFCDBF98
:1000D00011E0A0E0B1E0E2E2F1E202C005900D9291
:1000E000A03FB107D9F724E0A0EFB1E001C01D9215
:1000F000AE32B207E1F710E0C2E6D0E004C02197CB
:10010000FE010E94970EC136D107C9F70E94C009AF
:100110000C948F100C940000EEEBF2E0A089B189F2
:1001200082E08C93A485B5851C92A685B7858FEC5B
:100130008C93108EA489B58986E08C93A289B389AB
:100140008C9180618C93A289B3898C9188608C9307
:10015000A289B3898C9180688C930288F389E02D01
:1001600080818F7D8083089596E0899FD00111243E
:10017000A155BC4F90967C936E935F9791E09196BA
:100180009C939197E0911C04F0911D0490911B04A5
:10019000992339F0309751F0811108C08091CB0339
:1001A0000994309719F05C968C91FACF0895AF922C
:1001B000BF92CF92DF92EF92FF920F931F93CF9354
:1001C000DF936C017B018B01040F151FEB015E01B6
:1001D000AE18BF08C017D10759F06991D601ED914B
:1001E000FC910190F081E02DC6010995892B79F7EA
:1001F000C501DF91CF911F910F91FF90EF90DF909C
:10020000CF90BF90AF900895089508950895FC0190
:10021000538D448D252F30E0842F90E0821B930B6B
:10022000541710F0CF96089501970895FC01918D11
:10023000828D981761F0A28DAE0FBF2FB11D5D9614
:100240008C91928D9F5F9F73928F90E008958FEFB6
:100250009FEF0895FC01918D828D981731F0828D6A
:10026000E80FF11D858D90E008958FEF9FEF0895C1
:10027000FC01918D228D892F90E0805C9F4F821B25
:1002800091098F73992708958EEB92E00E943801AF
:1002900021E0892B09F420E0822F089580E090E08E
:1002A000892B29F00E94440181110C9400000895CB
:1002B000FC01A48DA80FB92FB11DA35ABF4F2C91DB
:1002C000848D90E001968F739927848FA689B789D2
:1002D0002C93A089B1898C91837080648C93938DC9
:1002E000848D981306C00288F389E02D80818F7D6C
:1002F00080830895EF92FF920F931F93CF93DF9324
:10030000EC0181E0888F9B8D8C8D98131AC0E88951
:10031000F989808185FF15C09FB7F894EE89FF8920
:100320006083E889F98980818370806480839FBFBE
:1003300081E090E0DF91CF911F910F91FF90EF90BE
:100340000895F62E0B8D10E00F5F1F4F0F731127CE
:10035000E02E8C8D8E110CC00FB607FCFACFE88909
:10036000F989808185FFF5CFCE010E945801F1CF38
:10037000EB8DEC0FFD2FF11DE35AFF4FF0829FB77D
:10038000F8940B8FEA89FB8980818062CFCFCF936D
:10039000DF93EC01888D8823B9F0AA89BB89E889AD
:1003A000F9898C9185FD03C0808186FD0DC00FB653
:1003B00007FCF7CF8C9185FFF2CF808185FFEDCFD1
:1003C000CE010E945801E9CFDF91CF91089583308B
:1003D00081F028F4813099F08230A9F008958730B7
:1003E000A9F08830C9F08430B1F4809180008F7D0D
:1003F00003C0809180008F7780938000089584B53A
:100400008F7784BD089584B58F7DFBCF8091B00038
:100410008F778093B00008958091B0008F7DF9CFE1
:10042000CF93DF93282F30E0F901E255FF4F8491FD
:10043000F901E656FF4FD491F901EA57FF4FC491F5
:10044000CC23A1F081110E94E701EC2FF0E0EE0F28
:10045000FF1FE458FF4FA591B491EC91ED2381E08B
:1004600090E009F480E0DF91CF91089580E090E082
:10047000FACF862F0C9410021F93CF93DF93282F6F
:1004800030E0F901E255FF4F8491F901E656FF4F44
:10049000D491F901EA57FF4FC491CC23A9F0162F4C
:1004A00081110E94E701EC2FF0E0EE0FFF1FEE58E4
:1004B000FF4FA591B4918FB7F894EC91111108C03A
:1004C000D095DE23DC938FBFDF91CF911F910895EC
:1004D000DE2BF8CF862F642F0C943C02CF93DF9352
:1004E00090E0FC01E656FF4F24918A579F4FFC0194
:1004F00084918823C9F090E0880F991FFC01E85986
:10050000FF4FA591B491FC01EE58FF4FC591D491D6
:1005100061110DC09FB7F8948C91209582238C9324
:100520008881282328839FBFDF91CF91089562306F
:1005300051F49FB7F8943C91822F809583238C933C
:10054000E8812E2BEFCF8FB7F894EC912E2B2C93C4
:100550008FBFEACF862F642F0C946E023FB7F894BA
:100560008091A7029091A802A091A902B091AA023D
:1005700026B5A89B05C02F3F19F00196A11DB11DFE
:100580003FBFBA2FA92F982F8827BC01CD01620F3A
:10059000711D811D911D42E0660F771F881F991FF5
:1005A0004A95D1F708958F929F92AF92BF92CF92C2
:1005B000DF92EF92FF924B015C010E94AE026B0151
:1005C0007C010E94AE026C197D098E099F09683E6C
:1005D000734081059105A8F321E0821A9108A108D2
:1005E000B10888EEC80E83E0D81EE11CF11C81140E
:1005F0009104A104B10429F7FF90EF90DF90CF9010
:10060000BF90AF909F908F9008952FB7F89460910E
:10061000A3027091A4028091A5029091A6022FBF1F
:1006200008950F931F93CF93DF93C82FD62F86E0A3
:10063000C89FF0011124E155FC4F11A2878D90A1B4
:1006400081309105F1F058F082309105F1F1039776
:1006500009F440C0DF91CF911F910F910895662357
:10066000C9F361E070E08C2F0E94B4000E94050382
:1006700060930704709308048093090490930A041C
:10068000E9CF0E940503009107041091080420910E
:10069000090430910A04AB01BC01401B510B620BF1
:1006A000730B8091190490911A04B0E0A0E08417B4
:1006B0009507A607B70748F462E070E08C2FDF913A
:1006C000CF911F910F910C94B40063E070E0D111B1
:1006D000C1CFF4CF70E060E0F1CF089520913102F6
:1006E000260F3327331F21323105ECF420917A0293
:1006F000FC0190E080E0243069F082E00895A09150
:1007000031022191AC014F5E5D4FA40FB52FB11D99
:100710002C930196861798F380913102680F6093AD
:10072000310280E0089581E0089510927A0281E01C
:10073000809379021092540261E082E10E943C02AF
:1007400061E083E10E943C02E9EBF0E080818E7F72
:10075000808380818D7F808388E48093B80085E4E6
:100760008093BC000895CF93DF9391E090931002A3
:100770008823B9F0C091B800D091BA008091BC0034
:100780008A7B8093BC0060E082E10E943C0260E0D2
:1007900083E10E943C020E949503D093BA00C0936B
:1007A000B800DF91CF910895E091B2028091B1023B
:1007B000E81730F4F0E0E051FE4F808190E00895BA
:1007C0008FEF9FEF08959091B2028091B1022FEFC9
:1007D0003FEF981748F4E92FF0E0E051FE4F2081F9
:1007E00030E09F5F9093B202C90108958091B102F9
:1007F0009091B202891B990B0895CF92DF92EF92EC
:10080000FF920F931F93CF93DF937C01CB018A015B
:1008100020918002222389F0EB016B01C40ED51ECA
:10082000CC15DD0569F06991D701ED91FC9101903E
:10083000F081E02DC7010995F3CF642F0E946E036C
:10084000C801DF91CF911F910F91FF90EF90DF9042
:10085000CF900895CF93DF931F92CDB7DEB7698312
:10086000209180022223F9F02091AF02203258F02B
:1008700021E030E0FC013383228390E080E00F90A0
:10088000DF91CF9108958091B002E82FF0E0EF570B
:10089000FD4F998190838F5F8093B0028093AF0268
:1008A00081E090E0ECCF61E0CE0101960E946E0302
:1008B000F7CFCF92DF92EF92FF920F931F93CF93D8
:1008C000DF93FC01C48121E020938002C093A10248
:1008D0001092B0021092AF028385682B8BE593E0F3
:1008E0000E942A04D091AF02D13208F092C00E9437
:1008F000AE026B017C0180917A02811165C082E0B9
:1009000080937A0281E0809379028FEF809378025E
:1009100010927702D0937602A1E8B2E0E6E5F2E029
:1009200080E0D81385C01092550280915502CC0FFB
:10093000C82BC093550280915402813009F07CC0CD
:10094000109254020E94AE026B017C01809155020C
:100950008093BB0080917C0290917D02A0917E02E9
:10096000B0917F02892B8A2B8B2B99F00E94AE02CB
:1009700000917C0210917D0220917E0230917F02D5
:100980006C197D098E099F09061717072807390773
:10099000E0F18091BC0083FDD9CF85EC8093BC0051
:1009A0000E94AE026B017C0180917A02823009F4D0
:1009B00045C0809178028F3F61F18091780280324A
:1009C00041F18091780225C080917C0290917D0256
:1009D000A0917E02B0917F02892B8A2B8B2B09F488
:1009E0008ACF0E94AE0200917C0210917D0220917C
:1009F0007E0230917F026C197D098E099F090617CE
:100A000017072807390708F076CF80917B020E94EC
:100A1000B3031092B0021092AF0210928002DF91E5
:100A2000CF911F910F91FF90EF90DF90CF9008959D
:100A30009D9191938F5F75CF85EEB0CF80917C02B1
:100A400090917D02A0917E02B0917F02892B8A2B2A
:100A50008B2B09F4A9CF0E94AE0200917C02109169
:100A60007D0220917E0230917F026C197D098E09F2
:100A70009F09061717072807390708F095CFC5CF34
:100A800090E080E008950F931F93CF93DF93EC01E4
:100A900088819981009759F02A813B812617370771
:100AA00030F081E0DF91CF911F910F9108958B017C
:100AB0006F5F7F4F0E94C20F009759F09983888320
:100AC0001B830A832C813D81232B59F7FC01108263
:100AD000E8CF80E0E7CFEF92FF920F931F93CF9381
:100AE000DF936115710541F480E0DF91CF911F9193
:100AF0000F91FF90EF90089541155105B1F07B01E2
:100B0000EC010C811D81040F151FB8010E944305E3
:100B1000882351F3288139818C819D81B701820F0F
:100B2000931F0E9488101D830C8381E0DECFCF933A
:100B3000DF93EC0188819981009711F00E94390FB1
:100B4000198218821D821C821B821A82DF91CF912A
:100B50000895EF92FF920F931F93CF93DF93EC01D1
:100B60007B018A01BA010E94430581110BC0CE01AD
:100B70000E949705CE01DF91CF911F910F91FF90B9
:100B8000EF9008951D830C83B701888199810E949D
:100B90008810F0CFFC0180819181009711F00C94B6
:100BA000390F0895FB0101900020E9F73197AF015B
:100BB000461B570BDC01ED91FC910280F381E02D87
:100BC00009940F931F93CF938C01C62F0E94590451
:100BD0006C2F6460C8010E9459046C2F6B7FC801A0
:100BE0000E94590483EC90E00197F1F7CF911F9197
:100BF0000F9108950F931F93CF93DF938C01D62FFE
:100C0000C42F607F642B0E94E10580E1D89FB00172
:100C100011246C2BC801DF91CF911F910F910C947F
:100C2000E105CF93DF93CDB7DEB728970FB6F894E1
:100C3000DEBF0FBECDBF98E0E2E2F1E0DE0111962B
:100C400001900D929A95E1F790912604691710F0A2
:100C50006FEF690F262F30E0220F331F41E050E085
:100C60004C0F5D1F240F351FF9016081680F60680C
:100C700040E08EE194E028960FB6F894DEBF0FBEF8
:100C8000CDBFDF91CF910C94FA058091BB02811109
:100C90002AC064E671E08EEB92E00E94D2056DE618
:100CA00071E08EEB92E00E94D20560E084E00E9449
:100CB000110660E771E08EE194E00E94D20561E0E8
:100CC00088E00E94110664E671E08EE194E00E94E3
:100CD000D20561E080E00E94110669E771E08EE1D3
:100CE00094E00C94D2056BE871E08EEB92E00E94E8
:100CF000D2056DE671E08EEB92E00E94D20560E0D5
:100D000084E00E9411066FE771E08EE194E00E949A
:100D1000D20561E088E00E94110668E871E0DFCF4B
:100D200041E00E94FA0581E090E00895CF92DF92C1
:100D3000EF92FF920F931F93CF93DF93CDB7DEB760
:100D4000A1970FB6F894DEBF0FBECDBF0E94900DE5
:100D50006AE070E00E946F0E8C019093AE03809366
:100D6000AD0360E080E00E9411066801012E000CD6
:100D7000EE08FF0817FF28C041E06DE28EE194E025
:100D80000E94FA0519A2F094E094D094C094C11C7A
:100D9000D11CE11CF11C80E3C80EC8A2BE01605E3C
:100DA0007F4F8EE194E00E94D205A1960FB6F89491
:100DB000DEBF0FBECDBFDF91CF911F910F91FF908E
:100DC000EF90DF90CF90089519A2E5CF85ED809345
:100DD000BC0080917C0290917D02A0917E02B09136
:100DE0007F020796A11DB11D23E0B695A7959795A3
:100DF00087952A95D1F72091BC0024FD03C010925D
:100E00007A02089540917C0250917D0260917E02A9
:100E100070917F02452B462B472B69F30097A10564
:100E2000B10541F025E32A95F1F700000197A109EA
:100E3000B109E1CF80917B020C94B3031F920F9212
:100E40000FB60F9211242F933F934F935F936F939D
:100E50007F938F939F93AF93BF93EF93FF938EEB0B
:100E600092E00E945801FF91EF91BF91AF919F9145
:100E70008F917F916F915F914F913F912F910F9043
:100E80000FBE0F901F9018951F920F920FB60F92E2
:100E900011242F938F939F93EF93FF93E091CE02B2
:100EA000F091CF028081E091D402F091D50282FDD1
:100EB0001BC090818091D7028F5F8F732091D802E1
:100EC000821741F0E091D702F0E0E254FD4F958F98
:100ED0008093D702FF91EF919F918F912F910F9067
:100EE0000FBE0F901F9018958081F4CF1F920F9224
:100EF0000FB60F9211242F933F938F939F93AF932D
:100F0000BF938091A3029091A402A091A502B091F9
:100F1000A6023091A20223E0230F2D3758F5019647
:100F2000A11DB11D2093A2028093A3029093A4025D
:100F3000A093A502B093A6028091A7029091A80267
:100F4000A091A902B091AA020196A11DB11D8093A2
:100F5000A7029093A802A093A902B093AA02BF91FE
:100F6000AF919F918F913F912F910F900FBE0F9056
:100F70001F90189526E8230F0296A11DB11DD2CF10
:100F80001F920F920FB60F9211242F933F934F93FE
:100F90005F936F937F938F939F93AF93BF93EF93E1
:100FA000FF938091B900887F803609F44AC0F0F53C
:100FB000883209F4A7C018F5803109F49BC0B8F451
:100FC000882309F4F9C0883009F494C0FF91EF91A7
:100FD000BF91AF919F918F917F916F915F914F9151
:100FE0003F912F910F900FBE0F901F901895883151
:100FF00009F488C0803251F78093780214C080349D
:1010000009F49DC040F48033B9F38833F9F6809336
:10101000780285ECB0C0803509F485C0883509F4C4
:1010200096C0883499F60E94E606D0CF883909F434
:101030008CC038F5883729F050F4883611F08037A5
:1010400029F683E080937A021092530257C08838C1
:1010500009F47BC0803919F0803809F0B7CF80914E
:101060005302803208F071C0E091530281E08E0F8C
:10107000809353028091BB00F0E0ED5CFD4F8083D4
:101080003DC0803B39F0E0F4803A09F479C0883AF9
:1010900009F09CCF84E080937A0210923202109281
:1010A0003102E091AD02F091AE02099580913102DA
:1010B00081110FC081E0809331021092110209C0AA
:1010C000803C09F4A6CF883C09F4A3CF883B09F003
:1010D0007DCFE091320281E08E0F80933202F0E00A
:1010E000EF5EFD4F80818093BB0090913202809132
:1010F000310229C0809155028093BB0085EC80931A
:10110000BC0064CF9091770280917602981758F5D1
:10111000E091770281E08E0F80937702F0E0EA5A47
:10112000FD4F8081E9CFE091770281E08E0F8093BF
:1011300077028091BB00F0E0EA5AFD4F80839091E6
:101140007702809176029817C8F285E8D8CFE091AF
:10115000770281E08E0F809377028091BB00F0E0F0
:10116000EA5AFD4F80838091790281115CCF81E042
:101170008093540284EA8093BC0010927A0226CFB6
:1011800085EC8093BC0010927A02809153028032E9
:1011900030F4E0915302F0E0ED5CFD4F108260917D
:1011A000530270E0E091AB02F091AC0283E392E075
:1011B0000995109253020ACF1092780234CFCF9340
:1011C000DF931092C1021092C00288EE93E0A0E07B
:1011D000B0E08093C2029093C302A093C402B09384
:1011E000C5022EE231E03093BF022093BE0225EC0F
:1011F00030E03093CB022093CA0224EC30E03093ED
:10120000CD022093CC0220EC30E03093CF0220932B
:10121000CE0221EC30E03093D1022093D00222ECB8
:1012200030E03093D3022093D20226EC30E03093AA
:10123000D5022093D4021092D7021092D8021092B5
:10124000D9021092DA0210925E0310925D0380932D
:101250005F0390936003A0936103B093620380E403
:1012600091E090935C0380935B0310926D03109266
:101270006E0310926F03109270031092710310921C
:1012800072031092730310927403109275031092FC
:1012900076031092770310927803109279031092DC
:1012A0007A0310927B0310927C0310922104109217
:1012B00020048CE591E090931F0480931E0487E244
:1012C0008093220480E18093270482E080932804A5
:1012D000109229041092B1031092B5031092B40336
:1012E0001092B60382E591E09093B0038093AF0330
:1012F000EBECF3E01082148213821582369684E0C0
:10130000E730F807B9F784E091E0909312048093F6
:10131000110480E091E0909314048093130484E01E
:10132000809315048093160488E091E09093100454
:1013300080930F04CAE0D0E0D0931804C093170440
:1013400084EF91E090931A048093190410921D0485
:1013500010921C0410920B0410920C0410920D04B5
:1013600010920E0410921B040E94900DBE010E9468
:101370006F0E9093AE038093AD03DF91CF910895EC
:10138000CF93DF93CDB7DEB76E970FB6F894DEBF7D
:101390000FBECDBF789484B5826084BD84B5816072
:1013A00084BD85B5826085BD85B5816085BD809130
:1013B0006E00816080936E001092810080918100A8
:1013C00082608093810080918100816080938100A0
:1013D000809180008160809380008091B100846062
:1013E0008093B1008091B00081608093B0008091C3
:1013F0007A00846080937A0080917A008260809382
:101400007A0080917A00816080937A0080917A00DE
:10141000806880937A001092C1001092A903109204
:10142000AA031092AB031092AC03109269031092BE
:101430006A0310926B0310926C030E9405036B0108
:101440007C014B015C0188EB880E8BE0981EA11C8F
:10145000B11C0E9405036C157D058E059F0528F0C3
:1014600086169706A806B906A0F768EE73E080E036
:1014700090E00E94D3020E948C000E9405036093BA
:10148000690370936A0380936B0390936C0361E923
:1014900071E08EEB92E00E94D2050E9405036B0181
:1014A0007C014B015C019AE0890E911CA11CB11CCE
:1014B0000E9405036C157D058E059F0528F0861694
:1014C0009706A806B906A0F781E080937D030E94E5
:1014D00005036093690370936A0380936B03909391
:1014E0006C0362EA71E08EEB92E00E94D2050E94EA
:1014F0008C0069EA71E08EEB92E00E94D2051092B6
:10150000B2021092B1021092B0021092AF020E9489
:10151000950384E091E09093AE028093AD0285E064
:1015200091E09093AC028093AB02109223048091DF
:101530002804823018F098E09093230480932604C6
:1015400062E370E080E090E00E94D30260912904A1
:101550008EE194E00E94590468EE73E080E090E030
:101560000E94D30260E38EE194E00E94E1050BE467
:1015700016E4C8010197F1F760E38EE194E00E9460
:10158000E105C8010197F1F760E38EE194E00E9464
:10159000E10583E592E00197F1F760E28EE194E0E6
:1015A0000E94E10560912304606240E08EE194E0D6
:1015B0000E94FA0584E08093240440E06CE08EE110
:1015C00094E00E94FA0540E061E08EE194E00E9420
:1015D000FA050BE31FE1C8010197F1F782E0809360
:1015E000250440E066E08EE194E00E94FA0540E0C8
:1015F00062E08EE194E00E94FA05C8010197F1F7DC
:1016000088E08093290460E08EE194E00E94590410
:101610006DEB71E08EEB92E00E94D2050E944506D0
:101620000E949606FE0131967F0136E0532E40E07F
:10163000242E40E0342E0E9405036090B30222E382
:1016400030E040E050E00E94D50D69317105810520
:10165000910508F408C2611009C281E08093B302C9
:1016600080931B040E94050300910B0410910C044D
:1016700020910D0430910E04AB01BC01401B510BB5
:10168000620B730B8091170490911804B0E0A0E0F6
:1016900084179507A607B70708F05BC110E0809193
:1016A0001504181760F4E0911104F0911204E10F91
:1016B000F11D62E080810E946E021F5FF0CF712CED
:1016C00080911604781608F063C0C72CD12CE091E5
:1016D0001304F0911404EC0DFD1D61E080810E9463
:1016E0006E02E0911304F0911404EC0DFD1D60E016
:1016F00080810E943C0281E090E0A0E0B0E0072CF5
:1017000004C0880F991FAA1FBB1F0A94D2F74C016F
:101710005C01A094B094412C80911504481608F502
:10172000042D10E0E0911104F0911204E00FF11F7C
:1017300080810E9410020C5F1F4F000F111FF801E3
:10174000E155FC4F892B41F48081918188299929A9
:10175000918380834394E0CF808191818A219B2172
:10176000F7CFE0911304F0911404EC0DFD1D61E03E
:1017700080810E943C028091130490911404C80E51
:10178000D91E60E0F60180810E946E02739498CFAA
:101790009FEAC92E93E0D92E8601F801878D90A18A
:1017A000892B31F4148E8FEF9FEF968F858F11A2C6
:1017B0000A5F1F4FEBEEF3E0E017F10771F7B12C72
:1017C00080911504B81608F052C0A12C8B2C912CD6
:1017D000880C991CC40189549C4F4C01209116041B
:1017E000A21608F042C0F401608171810A2C02C087
:1017F000769567950A94E2F7B29E900111242A0D1E
:10180000311DEFEAF3E080E0458D568D2417350752
:1018100009F438C18F5F36968A30B1F760FF23C074
:10182000EFEAF3E090E080E0448D411117C0E091D1
:101830000F04F0911004E20FF31F4081589EF00155
:10184000599EF00D1124E155FC4F448F368F258FA2
:1018500010A2178E61E00E94110305C00196369612
:101860008A30910509F7A394B9CFB394A9CFF601B3
:1018700081A18111682EF6E0CF0ED11CC016D106D1
:10188000B1F70E94050360930B0470930C048093DE
:101890000D0490930E04662009F45BC08091D00380
:1018A000882309F456C08091CE039091CF0301970D
:1018B00009F04FC0D090CB03DD2009F4D7C0809150
:1018C000AD039091AE032D2D0D2C000C330B205346
:1018D00031092817390709F03FC06D2D8EEB92E0D2
:1018E0000E947A016DE671E08EEB92E00E94D205D3
:1018F0000091BC021091BD028091BB0291E089274A
:1019000094E0900F60E0890F0E94110641E06D2D78
:101910008EE194E00E94FA050F5F1F4F1093BD0205
:101920000093BC028091BB022091BC023091BD02A9
:10193000811192C02630310509F092C091E08927CB
:101940008093BB021092BD021092BC020E94450619
:1019500087C010921B048AC01C8A1B8A1E8A1D8A9B
:10196000188E1F8A4AE0B7010E94A00DF70101906E
:101970000020E9F73197AF014E195F09B701CE0199
:1019800043960E94A9051A8E198E1C8E1B8E1E8EE0
:101990001D8ED9821A82F70101900020E9F7319754
:1019A000AF014E195F09B701CE0149960E94A90502
:1019B0001A8219821C821B821E821D82698D7A8D79
:1019C0006115710529F04D8D5E8DC7010E94A90535
:1019D0004BE150E064EC71E0C7010E946B0581119E
:1019E00003C0C7010E9497054F89588D6B897C8978
:1019F000C7010E946B05811103C0C7010E949705B2
:101A00004EE050E060EE71E0C7010E946B0581116D
:101A100003C0C7010E9497054D815E8169817A816B
:101A20008EEB92E00E94D7006DE671E08EEB92E0C3
:101A30000E94D205C7010E94CA05CE0149960E94A4
:101A4000CA05CE0143960E94CA050E94450610921F
:101A5000BD021092BC0266CF2830310509F46ECF6A
:101A60000E94960603C061101092B3022114310443
:101A700009F4E1CD0E944401882309F4D6CD0E94E7
:101A80000000D3CD6170E7CE8F929F92AF92BF924C
:101A9000CF92DF92EF92FF92CF93DF93EC016881B8
:101AA00079818A819B81611571058105910521F4F8
:101AB00064E279ED8BE597E02DE133EF41E050E012
:101AC0000E94F70D49015A019B01AC01A7EAB1E45C
:101AD0000E94160E6B017C01ACEEB4EFA5019401DF
:101AE0000E94240EDC01CB018C0D9D1DAE1DBF1D7F
:101AF000B7FF03C00197A109B04888839983AA83DF
:101B0000BB839F77DF91CF91FF90EF90DF90CF90D5
:101B1000BF90AF909F908F9008950E94440D0895BC
:101B200088E191E00E94440D0895B0E0A0E0809328
:101B3000180190931901A0931A01B0931B01089505
:101B4000BB274A3031F4992322F4BDE29095819568
:101B50009F4F0C94AC0DBB27FB015527AA27880F7C
:101B6000991FAA1FA41710F0A41B83955051B9F711
:101B7000A05DAA3308F0A95DA193009779F7B11190
:101B8000B1931192CB010C94C50DDC01FC01672FC0
:101B900071917723E1F7329704C07C916D93708344
:101BA0006291AE17BF07C8F30895A1E21A2EAA1BCF
:101BB000BB1BFD010DC0AA1FBB1FEE1FFF1FA217FD
:101BC000B307E407F50720F0A21BB30BE40BF50BFA
:101BD000661F771F881F991F1A9469F76095709583
:101BE000809590959B01AC01BD01CF010895052E14
:101BF00097FB1EF400940E940E0E57FD07D00E9422
:101C0000D50D07FC03D04EF40C940E0E5095409564
:101C1000309521953F4F4F4F5F4F08959095809598
:101C2000709561957F4F8F4F9F4F08950E94600E72
:101C3000A59F900DB49F900DA49F800D911D112420
:101C40000895B7FF0C94160E0E94160E821B930B7C
:101C500008952F923F924F925F926F927F928F9250
:101C60009F92AF92BF92CF92DF92EF92FF920F932B
:101C70001F93CF93DF93CDB7DEB7CA1BDB0B0FB635
:101C8000F894DEBF0FBECDBF09942A8839884888F2
:101C90005F846E847D848C849B84AA84B984C88488
:101CA000DF80EE80FD800C811B81AA81B981CE0F7F
:101CB000D11D0FB6F894DEBF0FBECDBFED01089564
:101CC000A29FB001B39FC001A39F700D811D11247D
:101CD000911DB29F700D811D1124911D089597FBD8
:101CE000072E16F4009407D077FD09D00E94830ECA
:101CF00007FC05D03EF4909581959F4F089570950F
:101D000061957F4F0895AA1BBB1B51E107C0AA1F15
:101D1000BB1FA617B70710F0A61BB70B881F991F8C
:101D20005A95A9F780959095BC01CD010895EE0FC5
:101D3000FF1F0590F491E02D09940F931F93CF930B
:101D4000DF938230910510F482E090E0E0912C0462
:101D5000F0912D0430E020E0B0E0A0E0309799F45D
:101D60002115310509F44AC0281B390B24303105EF
:101D7000D8F58A819B816115710589F1FB019383F7
:101D80008283FE0111C04081518102811381481775
:101D90005907E0F04817590799F4109761F0129627
:101DA0000C93129713961C933296CF01DF91CF912B
:101DB0001F910F91089500932C0410932D04F4CFDC
:101DC0002115310551F04217530738F0A901DB0105
:101DD0009A01BD01DF01F801C1CFEF01F9CF909366
:101DE0002D0480932C04CDCFFE01E20FF31F8193CD
:101DF00091932250310939832883D7CF20912A0427
:101E000030912B04232B41F420911E0130911F01AE
:101E100030932B0420932A0420911C0130911D0142
:101E20002115310541F42DB73EB740912001509165
:101E30002101241B350BE0912A04F0912B04E217B9
:101E4000F307A0F42E1B3F0B2817390778F0AC01DD
:101E50004E5F5F4F2417350748F04E0F5F1F5093BA
:101E60002B0440932A04819391939FCFF0E0E0E00C
:101E70009CCFCF93DF930097E9F0FC013297138258
:101E80001282A0912C04B0912D04ED0130E020E0ED
:101E90001097A1F420813181820F931F20912A0491
:101EA00030912B042817390709F061C0F0932B04F7
:101EB000E0932A04DF91CF910895EA01CE17DF075E
:101EC000E8F54A815B819E0141155105B1F7E901B1
:101ED000FB83EA8349915991C40FD51FEC17FD0785
:101EE00061F4808191810296840F951FE9019983A5
:101EF0008883828193819B838A83F0E0E0E012965D
:101F00008D919C9113970097B9F52D913C91119764
:101F1000CD010296820F931F20912A0430912B0449
:101F20002817390739F6309751F510922D04109281
:101F30002C04B0932B04A0932A04BCCFD383C28378
:101F400040815181840F951FC817D90761F44E5FF6
:101F50005F4F88819981480F591F518340838A813F
:101F60009B81938382832115310509F0B0CFF093D3
:101F70002D04E0932C049ECFFD01DC01C0CF138221
:101F80001282D7CFB0E0A0E0E8ECFFE00C942B0E7B
:101F90008C01009751F4CB010E949D0E8C01C80169
:101FA000CDB7DEB7E0E10C94470EFC01E60FF71F5A
:101FB0009C0122503109E217F30708F49DC0D901B2
:101FC000CD91DC911197C617D70798F0C530D10590
:101FD00030F3CE0104978617970708F3C61BD70B7B
:101FE0002297C193D1936D937C93CF010E94390FB7
:101FF000D6CF5B01AC1ABD0A4C018C0E9D1EA09180
:102000002C04B0912D04512C412CF12CE12C109773
:1020100031F580912A0490912B048815990509F0D7
:102020005CC04616570608F058C080911C0190917C
:102030001D01009741F48DB79EB74091200150914A
:102040002101841B950BE817F90708F055C0F093A0
:102050002B04E0932A04F90171836083A0CF8D9152
:102060009C91119712966C90129713967C901397EF
:10207000A815B90559F56C0142E0C40ED11CCA146B
:10208000DB0420F1AC014A195B09DA0112961597BD
:1020900080F06282738251834083D9016D937C9377
:1020A000E114F10471F0D7011396FC93EE931297AB
:1020B00076CF22968C0F9D1FF90191838083F301C7
:1020C000EFCFF0932D04E0932C0469CF4816590606
:1020D00008F42C017D01D3019ACFCB010E949D0E03
:1020E0007C01009749F0AE01B8010E947F10C80141
:1020F0000E94390F870153CF10E000E050CFFB0161
:10210000DC0102C001900D9241505040D8F7089573
:10211000FB01DC0101900D920020E1F70895F89495
:02212000FFCFEF
:1021220009080706050403023132334134353642C9
:10213200373839432A3023440100000000002E04BE
:1021420080000000400014005400000000007A01EA
:10215200D7000701C701380116012A01000000005B
:102162002A04FD0340050601F603E303D40300003D
:102172000000AA026A023902000000009006D7009D
:1021820040056D0344495341524D4544000D0A0038
:10219200202A2A2A2A2A2A20002020202020002A37
:1021A2002A2A2A2A2A2A2A0020202041524D45443E
:1021B20000564D4450565F317C315F564D44505667
:1021C2000A00564D4450525F00496E697469616C51
:1021D200697A696E67204C43442E2E2E00446F6E3E
:1021E200652E0A002077617320696E7075747465BC
:1021F200642C206C6F6F6B696E6720666F722000B3
:102202002E2E2E20526573657474696E672E00003F
:00000001FF
