:100000000C9465000C948D000C948D000C948D0064
:100010000C948D000C948D000C948D000C948D002C
:100020000C948D000C948D000C948D000C948D001C
:100030000C948D000C948D000C948D000C948D000C
:100040000C94BA110C948D000C9488110C946211CC
:100050000C948D000C948D000C948D000C948D00EC
:100060000C948D000C948D007C3C3E5E2B3D3F2F0C
:100070005B5D3B2C2A225C000000000800020100AE
:100080000003040700000000000000000000000062
:10009000250028002B0000000000240027002A0073
:1000A000040404040404040402020202020203031E
:1000B0000303030301020408102040800102040826
:1000C0001020010204081020041211241FBECFEFDB
:1000D000D8E0DEBFCDBF24E0AAEBB1E001C01D92A5
:1000E000AF3FB207E1F711E0A0E0B1E0ECE9FEE2DA
:1000F00002C005900D92AA3BB107D9F710E0C5E602
:10010000D0E004C02197FE010E943815C436D10703
:10011000C9F70E945E120C944C170C940000EDEC91
:10012000F3E0A089B18982E08C93A485B5851C9207
:10013000A685B7858FEC8C93108EA489B58986E04F
:100140008C93A289B3898C9180618C93A289B389A5
:100150008C9188608C93A289B3898C9180688C93F0
:100160000288F389E02D80818F7D8083089590E05F
:10017000FC01EC54FF4F249180569F4FFC01849169
:10018000882399F090E0880F991FFC01EA56FF4FF1
:10019000A591B491FC01E457FF4F859194918FB7DD
:1001A000F894EC91E22BEC938FBF0895AF92BF923D
:1001B000CF92DF92EF92FF920F931F93CF93DF9333
:1001C0006C017B018B01040F151FEB015E01AE1862
:1001D000BF08C017D10759F06991D601ED91FC9184
:1001E0000190F081E02DC6010995892B79F7C501B1
:1001F000DF91CF911F910F91FF90EF90DF90CF9003
:10020000BF90AF900895FC01538D448D252F30E0B1
:10021000842F90E0821B930B541710F0CF96089513
:1002200001970895FC01918D828D981761F0A28D40
:10023000AE0FBF2FB11D5D968C91928D9F5F9F7306
:10024000928F90E008958FEF9FEF0895FC01918DBC
:10025000828D981731F0828DE80FF11D858D90E029
:1002600008958FEF9FEF0895FC01918D228D892FC6
:1002700090E0805C9F4F821B91098F7399270895AE
:100280008DEC93E00E94340121E0892B09F420E0F9
:10029000822F089580E090E0892B29F00E94400190
:1002A00081110C9400000895FC01A48DA80FB92FB2
:1002B000B11DA35ABF4F2C91848D90E001968F738E
:1002C0009927848FA689B7892C93A089B1898C91AD
:1002D000837080648C93938D848D981306C00288FC
:1002E000F389E02D80818F7D80830895EF92FF92C6
:1002F0000F931F93CF93DF93EC0181E0888F9B8D49
:100300008C8D98131AC0E889F989808185FF15C002
:100310009FB7F894EE89FF896083E889F989808125
:100320008370806480839FBF81E090E0DF91CF91F4
:100330001F910F91FF90EF900895F62E0B8D10E016
:100340000F5F1F4F0F731127E02E8C8D8E110CC085
:100350000FB607FCFACFE889F989808185FFF5CFD0
:10036000CE010E945401F1CFEB8DEC0FFD2FF11D5A
:10037000E35AFF4FF0829FB7F8940B8FEA89FB890D
:1003800080818062CFCFCF93DF93EC01888D88236B
:10039000B9F0AA89BB89E889F9898C9185FD03C0E8
:1003A000808186FD0DC00FB607FCF7CF8C9185FFCD
:1003B000F2CF808185FFEDCFCE010E945401E9CFBD
:1003C000DF91CF91089590E0FC01E858FF4F249110
:1003D000FC01EC54FF4F3491FC01E056FF4FE491D7
:1003E000EE23C9F0222339F0233001F1A8F42130A3
:1003F00019F1223029F1F0E0EE0FFF1FE457FF4F13
:10040000A591B4918FB7F894EC91611126C0309505
:100410003E233C938FBF08952730A9F02830C9F0C0
:10042000243049F7809180008F7D03C08091800047
:100430008F7780938000DFCF84B58F7784BDDBCF4B
:1004400084B58F7DFBCF8091B0008F778093B00013
:10045000D2CF8091B0008F7DF9CF3E2BDACF3FB75E
:10046000F8948091C6019091C701A091C801B09104
:10047000C90126B5A89B05C02F3F19F00196A11D03
:10048000B11D3FBFBA2FA92F982F8827BC01CD01DE
:10049000620F711D811D911D42E0660F771F881F3D
:1004A000991F4A95D1F708958F929F92AF92BF926C
:1004B000CF92DF92EF92FF924B015C010E942F02DC
:1004C0006B017C010E942F026C197D098E099F0926
:1004D000683E734081059105A8F321E0821A9108D6
:1004E000A108B10888EEC80E83E0D81EE11CF11CFB
:1004F00081149104A104B10429F7FF90EF90DF90DB
:10050000CF90BF90AF909F908F9008952FB7F894A1
:100510006091C2017091C3018091C4019091C501A5
:100520002FBF08958FB7F8948091BB018FBF0895B6
:1005300061E0FC0184810E94E3018091BA01811194
:100540001092BA0108958EBD00000DB407FEFDCFD4
:100550008EB508958FEF0C94A3020F931F93CF9342
:10056000DF93EC010E9486028B010E94AA028F3F5A
:1005700069F00E948602601B710B6C177D07A8F35F
:1005800080E0DF91CF911F910F91089581E0F9CF25
:100590008CBD9DBD0895CF93DF93EC018091BA018E
:1005A000811109C081E08093BA0180916A04909121
:1005B0006B040E94C80260E08C81DF91CF910C94A3
:1005C000E3018F929F92AF92BF92FF920F931F937E
:1005D000CF93DF93EC01F62E49015A018E818823D7
:1005E00089F08F8198859C012F5F3F4F38872F833B
:1005F0008230924018F40E94AA02F3CFCE010E94EA
:1006000098021E82CE010E94CB028CE291E00E94F1
:10061000AD028F2D80640E94A30208E110E0D50195
:10062000C401002E04C0B695A795979587950A94A6
:10063000D2F70E94A30208501109083F8FEF180754
:1006400071F785E9FF2021F028E087E8F2128FEFAB
:100650000E94A30210E00E94AA028A8787FF04C0BA
:100660001F3F11F01F5FF7CFDF91CF911F910F91C7
:10067000FF90BF90AF909F908F900895AF92BF92E0
:10068000CF92DF92EF92FF920F931F93CF93DF935E
:10069000EC016901C801820F931F8130924050F52F
:1006A0008E81882379F088819981AA81BB81841702
:1006B0009507A607B70731F48F819885C816D90624
:1006C00008F042C0488359836A837B838B858330DB
:1006D00039F089E0440F551F661F771F8A95D1F7BF
:1006E0009A01AB0161E1CE010E94E102882389F009
:1006F00083E08D83CE010E94980280E0DF91CF914C
:100700001F910F91FF90EF90DF90CF90BF90AF902F
:1007100008950E9486025B010E94AA028A878F3F89
:1007200069F40E9486026A197B096D327140A0F358
:100730008FE08D83CE010E949802DCCF8E3F89F43A
:1007400018861F8281E08E838F8198858C159D0588
:1007500050F40E94AA028F819885019698878F8312
:10076000F3CF8DE0E6CF6701E00EF11E0E94AA02F2
:10077000F60181936F01EE15FF05C1F78F81988512
:10078000080F191F18870F838985882319F0011511
:100790001240A0F08E81882389F08F8198859C017A
:1007A0002F5F3F4F38872F838230924018F40E948A
:1007B000AA02F3CFCE010E9498021E8281E09ECF52
:1007C000CF92DF92EF92FF920F93CF93DF93EC01E2
:1007D000690182E1411551056105710599F08B852B
:1007E000833039F089E0440F551F661F771F8A95C3
:1007F000D1F79A01AB0168E1CE010E94E1028823A2
:1008000019F084E08D832DC08EEF0E94A302760143
:100810008EEFD81AF70181917F010E94A302EC1498
:10082000FD04C1F78FEF0E94A3028FEF0E94A30285
:100830000E94AA028A878F71853071F4011116C057
:10084000CE010E94980281E0DF91CF910F91FF903D
:10085000EF90DF90CF90089581E18D83CE010E94CB
:100860009802CE010E94980280E0EECF88E592E0E7
:100870000E94AD02811102C085E1C4CF20E030E0CA
:10088000A9016DE0CE010E94E102882311F084E10C
:10089000B9CF0E94AA028111FACFD2CF0F93409113
:1008A000BD015091BE016091BF017091C001411521
:1008B00051056105710599F0082F2BEC31E080910D
:1008C000CB039091CC030E94E003882349F010925F
:1008D000BD011092BE011092BF011092C00181E0D3
:1008E0000F9108950F93CF93C82F8091BC01811170
:1008F00005C0C1E08C2FCF910F9108954091000168
:100900005091010160910201709103010C2F2BECB9
:1009100031E08091CB039091CC030E94E0038111E0
:1009200002C0C0E0E7CFCC2321F381E00E944E0457
:100930008823B9F31092BC01DDCF8F929F92AF92C2
:10094000BF92EF92FF920F931F93CF934B015C01E5
:10095000C42F8091000190910101A0910201B091FA
:10096000030188159905AA05BB0551F181E00E9494
:10097000720481110BC080E0CF911F910F91FF9005
:10098000EF90BF90AF909F908F9008958BECE82EE2
:1009900081E0F82E00E012E030E020E0B501A40193
:1009A0008091CB039091CC030E943E03882319F3DE
:1009B0008092000190920101A0920201B092030185
:1009C0004091BC014C2B4093BC0181E0D5CF8F926C
:1009D0009F92AF92BF92CF92DF92EF92FF92CF930E
:1009E0002CE634E03093CC032093CB03882309F426
:1009F0006DC040E060E070E0CB010E949D04811179
:100A00000BC080E0CF91FF90EF90DF90CF90BF9030
:100A1000AF909F908F900895809189038F7789F789
:100A20008091950390919603A0919703B0919803BC
:100A300084369105A105B10520F3C0909103D090B3
:100A40009203E0909303F0909403C114D104E10465
:100A5000F104B9F240E0C701B6010E949D04882369
:100A600081F28091D6019091D7018115924049F68B
:100A7000A091DB01AA2329F26091D9017091DA01DA
:100A80006115710509F4BDCF2091D801222309F425
:100A9000B8CFA0938A0420937C0490E080E030E0FB
:100AA000E1E0F0E0C82FAF01082E02C0440F551F4F
:100AB0000A94E2F72417350769F041E0480F0196E0
:100AC0008930910579F7409385049BCFC12CD12CB7
:100AD0007601C0CF809385042091E1013091E2013D
:100AE00050E040E02115310541F42091EF013091B3
:100AF000F0014091F1015091F20120937D04309377
:100B00007E0440937F045093800446015701860E73
:100B1000971EA11CB11C80928B0490928C04A09211
:100B20008D04B0928E04E091DC01F091DD01F09330
:100B30009104E0939004B0E00E94E714DC01CB0143
:100B4000880D991DAA1DBB1D809392049093930458
:100B5000A0939404B093950425E0EE0FFF1F2A950F
:100B6000E1F7E150FE4FEF2FFF27E6958E0F9F1F15
:100B7000A11DB11D8093860490938704A0938804DF
:100B8000B09389048090DE019090DF01B12CA12CFC
:100B90008114910441F48090EB019090EC01A090BD
:100BA000ED01B090EE01C81AD90AEA0AFB0AC80C96
:100BB000D91CEA1CFB1C04C0F694E794D794C79494
:100BC000CA95D2F7C0928104D0928204E092830445
:100BD000F092840485EFC8168FE0D806E104F10492
:100BE00028F48CE080938F0481E00CCF80E125EF26
:100BF000C2162FEFD206E104F104A0F38091F701B1
:100C00009091F801A091F901B091FA0180939204BA
:100C100090939304A0939404B093950480E2E2CF60
:100C20004F925F926F927F928F929F92AF92BF92FC
:100C3000CF92DF92EF92FF920F931F93CF93DF93A8
:100C4000EC01423051056105710590F480E0DF91BF
:100C5000CF911F910F91FF90EF90DF90CF90BF90B9
:100C6000AF909F908F907F906F905F904F9008957E
:100C700089859A85AB85BC850196A11DB11D841718
:100C80009507A607B70710F3CB88DC88ED88FE88A8
:100C90008F89803109F042C0BB27A72F962F852F5F
:100CA000480159012A013B01C80ED91EEA1EFB1E4C
:100CB0008091000190910101A0910201B091030186
:100CC000C816D906EA06FB0699F58F898031C1F569
:100CD000B301A201552766277727440F551F4553B7
:100CE0005E4FFA01918280828091BC018160809385
:100CF000BC018A89823080F08D819E81AF81B88568
:100D00008C0D9D1DAE1DBF1D8093BD019093BE0136
:100D1000A093BF01B093C00181E099CFDB01CA016C
:100D2000E7E0B695A79597958795EA95D1F7B8CF5F
:100D300040E0C701B6010E949D048111C6CF86CF55
:100D4000B301A2014F77552766277727440F551F18
:100D5000440F551F45535E4FFA0180829182A28253
:100D6000B382C2CF8F929F92AF92BF92CF92DF9207
:100D7000EF92FF920F931F93CF93DF93FC01818536
:100D80009285A385B4850196A11DB11D8417950791
:100D9000A607B70770F480E0DF91CF911F910F9104
:100DA000FF90EF90DF90CF90BF90AF909F908F908B
:100DB000089583889488A588B6888789803189F5C5
:100DC000BB27A72F962F852FE9016A017B018F0191
:100DD000BC01CD01680D791D8A1D9B1D809000010D
:100DE00090900101A0900201B09003018616970631
:100DF000A806B90601F5F8018789803111F5DD24CF
:100E0000EE24FF24F601EE0FFF1FE553FE4F808115
:100E10009181B0E0A0E088839983AA83BB8381E0BD
:100E2000BBCFDB01CA01C7E0B695A795979587951B
:100E3000CA95D1F7C9CF40E00E949D048111DBCF54
:100E4000AACFE894C7F8DD24EE24FF24F601EE0FC4
:100E5000FF1FEE0FFF1FE553FE4F80819181A2819E
:100E6000B381BF70D8CF4F925F926F927F92AF9253
:100E7000BF92CF92DF92EF92FF920F931F93CF9387
:100E8000DF9300D000D0CDB7DEB78C0149835A8301
:100E90006B837C835901C12CD12C7601412C82E0DB
:100EA000582E612C712C49815A816B817C819E0165
:100EB0002F5F3F4FC8010E94B206882339F1F80125
:100EC0008585A301920104C0220F331F441F551FC3
:100ED0008A95D2F7DA01C901C80ED91EEA1EFB1E97
:100EE00049815A816B817C818789803111F188EF3A
:100EF0009FEFAFEFBFE0481759076A077B0798F2EB
:100F0000F501C082D182E282F38281E00F900F90DE
:100F10000F900F90DF91CF911F910F91FF90EF9065
:100F2000DF90CF90BF90AF907F906F905F904F9089
:100F3000089588EF9FEFA0E0B0E0DDCFCF93DF937F
:100F4000FC012581222321F080E0DF91CF910895DB
:100F5000EC0180918F04803159F582E08583178AF6
:100F6000108E118E128E8091900490919104B0E0B9
:100F7000A0E025E0880F991FAA1FBB1F2A95D1F773
:100F8000838B948BA58BB68B88E794E09C8F8B8F9B
:100F900081E08C831E821F82188619861A861B8622
:100FA0001C861D861E861F86188A198A1A8ACDCF2E
:100FB000803251F683E085834091920450919304EE
:100FC0006091940470919504478B508F618F728F5C
:100FD0009F012D5E3F4F88E794E00E943307811107
:100FE000D3CFB2CF8F929F92AF92BF92CF92DF9228
:100FF000EF92FF920F931F93CF93DF93EC018D81BC
:1010000081110EC080E0DF91CF911F910F91FF9071
:10101000EF90DF90CF90BF90AF909F908F9008950A
:101020000B891C892D893E89041715072607370768
:1010300048F34A015B01823031F48A869B86AC8694
:10104000BD8681E0E0CF81149104A104B10449F48C
:101050001E821F82188619861A861B861C861D868C
:10106000F0CF0A851B852C853D85EB8DFC8D858514
:1010700090E00996B901A80141505109610971092F
:10108000082E04C076956795579547950A94D2F730
:1010900075016401E1E0CE1AD108E108F10804C04D
:1010A000F694E794D794C7948A95D2F7C416D506D8
:1010B000E606F70620F0012B022B032B11F58F8992
:1010C000988DA98DBA8D8E839F83A887B9878E014D
:1010D0000A5F1F4FC114D104E104F10409F4ADCF3C
:1010E0004E815F816885798598018B8D9C8D0E94EA
:1010F000B20691E0C91AD108E108F1088111EACFDE
:1011000081CFC41AD50AE60AF70AE1CF3F924F927F
:101110005F926F927F928F929F92AF92BF92CF9287
:10112000DF92EF92FF920F931F93CF93DF93CDB790
:10113000DEB72C970FB6F894DEBF0FBECDBF5C01B3
:10114000DC015B968D909C905C9716964D905D901F
:101150006D907C901997411451046104710409F455
:1011600068C0BFEF4B1A5B0A6B0A7B0A312CF40193
:1011700081859285A385B4859C01AD012F5F3F4F8A
:101180004F4F5F4F29873A874B875C877301620116
:101190001D821E821F821886F40181859285A38597
:1011A000B4852D813E814F815885281739074A071C
:1011B0005B0708F056C089859A85AB85BC858C1580
:1011C0009D05AE05BF0550F482E0C82ED12CE12C60
:1011D000F12C92E0492E512C612C712C9E012F5F35
:1011E0003F4FB701A601C4010E94B2068823C9F18E
:1011F00089819A81AB81BC81892B8A2B8B2B09F148
:10120000260137019FEF491A590A690A790A2D8187
:101210003E814F8158852F5F3F4F4F4F5F4F2D834A
:101220003E834F8358873FEFC31AD30AE30AF30A7A
:10123000B3CFF401408051806280738033243394B3
:1012400096CFC414D504E604F70409F70FEF1FEF97
:101250002FEF3FE0B701A601C4010E9410068111E3
:1012600019C080E02C960FB6F894DEBF0FBECDBF3C
:10127000DF91CF911F910F91FF90EF90DF90CF9072
:10128000BF90AF909F908F907F906F905F904F90A6
:101290003F900895D50116964D915D916D917C9189
:1012A0001997411551056105710539F097018601BE
:1012B000C4010E9410068823A1F2D5011696CD9292
:1012C000DD92ED92FC921997332051F0D701C601BF
:1012D0000196A11DB11DF40180839183A283B38384
:1012E000F5018789908DA18DB28D892B8A2B8B2B4F
:1012F00039F48481C78AD08EE18EF28E806884832F
:10130000F50184818062848381E0ACCF1F93CF9309
:10131000DF93FC0125812223D1F1162FEC0184817A
:1013200087FF2AC0668577858089918941E00E9480
:101330009D04882361F1EA8980E2E89FF00111248D
:10134000E553FE4F309719F18D81823040F48B893F
:101350009C89AD89BE89848F958FA68FB78F8F8921
:10136000988D938F828F8F89988DA98DBA8DB58B2B
:10137000A48B8C818F778C83111103C08C818F7E1D
:101380008C83812FDF91CF911F910C94720480E0A8
:10139000DF91CF911F910895FF920F931F93CF93E9
:1013A000DF93EC018D81813041F090E080E0DF91AE
:1013B000CF911F910F91FF9008958C8181FFF5CF00
:1013C00082FD1BC00091CB031091CC03C8010E9489
:1013D000CB020E94AA02F82EC8010E9498028FEF49
:1013E000F812E3CF8C8185FF1BC060E0CE010E9424
:1013F00086098C818F7D8C83D8CF4B895C896D89E0
:101400007E898A859B85AC85BD8584179507A6074F
:10141000B707C1F2CE010E94F2078111D3CFC5CF29
:101420004091BD015091BE016091BF017091C0011A
:10143000452B462B472B21F080E00E944E04B5CF70
:1014400080618C832A853B85317080E092E0821B2D
:10145000930BADCFCF93DF93EC0161E00E9486093F
:10146000882311F01D8281E0DF91CF9108952F92A2
:101470003F924F925F926F927F928F929F92AF9224
:10148000BF92CF92DF92EF92FF920F931F93CF9371
:10149000DF9300D000D01F92CDB7DEB77C015B0197
:1014A000342E5D83DC0115968C911597813009F0FF
:1014B000CEC014962C9021FECAC022FCB4C0C32C0E
:1014C000DD8022947FE027222094B22DB1702B2E54
:1014D000D7011A964D915D916D917C911D97C11424
:1014E000D10409F428C15B968D919C915C97FC0115
:1014F00074807A948A019B0169E036952795179547
:1015000007956A95D1F770228A011170711020C079
:1015100001151105E9F416964D915D916D917C913F
:101520001997411551056105710509F099C0579644
:101530008D919D910D90BC91A02D0097A105B105B5
:1015400009F0B0C0C7010E948608882309F47FC053
:1015500080E092E0801B910B46018C159D0508F4FC
:101560004C01D7015B964D915C915C9716968D91DD
:101570009D910D90BC91A02D0297A109B109FA018E
:10158000258504C0880F991FAA1FBB1F2A95D2F773
:101590004685578560897189840F951FA61FB71FDF
:1015A0009C01AD01270D311D411D511D29013A013D
:1015B000811432E0930609F07BC080910001909184
:1015C0000101A0910201B091030184159505A605C2
:1015D000B70559F48FEF9FEFDC01809300019093E2
:1015E0000101A0930201B0930301022D9501B30103
:1015F000A2018091CB039091CC030E94E003882349
:1016000031F19EEFB91AC818D908F7018285938580
:10161000A485B585880D991DA11DB11D828793876D
:10162000A487B58755CFF7014389548965897689A1
:1016300082859385A485B585481759076A077B0776
:1016400009F43DCFC7010E94F207811138CF81E034
:1016500090E0D70113969C938E93129780E007C079
:101660009E012F5F3F4F0E94B206811102C090E0A1
:1016700079C089819A81AB81BC81F701238D348D3A
:10168000F901278948EF5FEF60E070E0203121F039
:1016900048EF5FEF6FEF7FE084179507A607B70766
:1016A00008F050CFF70186839783A087B18750CF8A
:1016B0000115110599F5D7011A964D915D916D911E
:1016C0007C911D9753968D919D910D90BC91A02D6D
:1016D000481759076A077B0708F181E00E947204E6
:1016E000882309F4B4CF4092000150920101609226
:1016F0000201709203018091BC0181608093BC0162
:10170000C80185539E4FD5019C01280D391DFC0150
:101710002E173F0759F04D914193FACF41E0C30195
:10172000B2010E949D048111EBCF91CF281B390B90
:10173000A20EB31E68CFF70183899489A589B68963
:1017400084179507A607B70738F48481438B548B19
:10175000658B768B80688483F701848183FD1AC052
:10176000832D9D810F900F900F900F900F90DF9120
:10177000CF911F910F91FF90EF90DF90CF90BF908E
:10178000AF909F908F907F906F905F904F903F9021
:101790002F90089561E0C7010E948609882309F40B
:1017A00056CFDECFCF93DF931F92CDB7DEB76983DD
:1017B00041E050E0BE016F5F7F4F0E94370A0F90FB
:1017C000DF91CF910895FC01DB0112968D919C91E0
:1017D00013979383828382E391E0918380831496AD
:1017E0008C911497848315968C9115978583169602
:1017F0004D915D916D917C911997468357836087D8
:1018000071871A964D915D916D917C911D974287DC
:101810005387648775871E964D915D916D917C917C
:10182000519746875787608B718B52968C91529750
:10183000828B53964D915D916D917C915697438B20
:10184000548B658B768B57964D915D916D917C9104
:101850005A97478B508F618F728F5B968D919C91B9
:10186000948F838F08950895FC01818D928D009748
:1018700019F061E00C9486090895DC015996ED9108
:10188000FC913097B9F083899489A589B6894285FE
:10189000538564857585841B950BA60BB70B811545
:1018A00020E89207A105B10538F08FEF9FE7A0E08F
:1018B000B0E0089590E080E00895DC0159968D91A4
:1018C0009C91009739F0DC01ED91FC910480F58149
:1018D000E02D099490E080E00895CF93DF93EC0130
:1018E000E98DFA8D309749F481E090E09B838A83FB
:1018F00090E080E0DF91CF91089513821282898D6C
:101900009A8D0E94370AE98DFA8D22813381232B2B
:1019100059F7F0CFCF93DF931F92CDB7DEB769832E
:10192000DC01ED91FC910280F381E02D41E050E07B
:10193000BE016F5F7F4F09950F90DF91CF910895A2
:101940002F923F924F925F926F927F928F929F92CF
:10195000AF92BF92CF92DF92EF92FF920F931F93BD
:10196000CF93DF9300D01F92CDB7DEB7FC01858106
:10197000811118C08FEF9FEF0F900F900F90DF91A4
:10198000CF911F910F91FF90EF90DF90CF90BF907C
:10199000AF909F908F907F906F905F904F903F900F
:1019A0002F900895848180FFE5CF4389548965890C
:1019B000768982859385A485B585312C212C48179D
:1019C00059076A077B0719F022242394312C6F01F1
:1019D0002101CE0101963C01DF011696BB83AA834B
:1019E0004114510409F4C5C0F6014285538564854C
:1019F00075854A01F1E09F22D6015B968D919C91FD
:101A00005C978A019B01E9E0369527951795079524
:101A1000EA95D1F71596EC91E230E9F5FC01628D7B
:101A2000738D848D958D600F711F821F931FA12C64
:101A300022E0B22EA818B9084A145B0408F4520137
:101A4000F601248126FD04C0A114F2E0BF0671F462
:101A500000910001109101012091020130910301D8
:101A6000061717072807390709F05EC040E00E94F3
:101A70009D04882309F47ECFC40185539E4FD30172
:101A80009C012A0D3B1DFC012E173F0709F46CC079
:101A900041914D93F9CFDC011496BC90BA94B022D9
:101AA0008114910479F4B1100DC0452B462B472BBE
:101AB00069F5F6018789908DA18DB28D8683978314
:101AC000A087B187D6015B96ED91FC915C97169645
:101AD0006D917D918D919C91199762507109810949
:101AE0009109258504C0660F771F881F991F2A95C5
:101AF000D2F70685178520893189600F711F821FF3
:101B0000931F6B0D711D811D911D91CFD6011696EE
:101B10004D915D916D917C9119972A813B810E9435
:101B2000B2068111CFCF26CF730185019401AB019D
:101B3000BC018091CB039091CC030E943E0388238B
:101B400009F418CF6A0C7B1CF60182859385A48565
:101B5000B5858A0D9B1DA11DB11D82879387A48722
:101B6000B5874A185B083CCF281B390B620E731EE1
:101B7000EBCF2A94232809F0FDCE898190E0FCCE9A
:101B8000FC01818D928D009711F00C94A00C8FEFC9
:101B90009FEF08950F931F93CF93DF93EC01898DEF
:101BA0009A8D10E000E0009799F00E94A00C8C0143
:101BB0000F3F100769F0898D9A8DFC01428553858E
:101BC0006485758541505109610971090E94F207C8
:101BD000C801DF91CF911F910F910895FB010190F2
:101BE0000020E9F73197AF01461B570BDC01ED915F
:101BF000FC910280F381E02D0994CF93DF93BC0127
:101C00008DEC93E00E94EE0DEC016AE371E08DEC47
:101C100093E00E94EE0D8C0F9D1FDF91CF910895F0
:101C20000F931F93CF93DF93EC01FB014481558108
:101C300060817181E881F9810280F381E02D09954D
:101C40008C016AE371E0CE010E94EE0D800F911FBE
:101C5000DF91CF911F910F910895CF92DF92EF9274
:101C6000FF920F931F93CF93DF93CDB7DEB76297A9
:101C70000FB6F894DEBF0FBECDBF8C01CB01F801CB
:101C80001182108213821282158214824AE09E0110
:101C90002F5F3F4F6901B9010E94B214F601019014
:101CA0000020E9F731977F01EC18FD08F8018081E9
:101CB0009181009729F0228133812E153F0590F400
:101CC000B7016F5F7F4F0E946316F801009799F08C
:101CD00091838083F382E28224813581232B11F466
:101CE000FC011082F801F582E482B60180819181C5
:101CF0000E9436170DC080819181009711F00E94DB
:101D0000DA15F80111821082158214821382128270
:101D100062960FB6F894DEBF0FBECDBFDF91CF91B4
:101D20001F910F91FF90EF90DF90CF900895CF9289
:101D3000DF92EF92FF921F93CF93DF93EC0180E24B
:101D4000689FF0011124E553FE4F9385917161F076
:101D5000842F827449F080E0DF91CF911F91FF9032
:101D6000EF90DF90CF900895142F6A8B809100013F
:101D700090910101A0910201B09103018E879F878C
:101D8000A88BB98BC488D588F12CE12C7601DD2491
:101D9000CC24CF8AD88EE98EFA8E828D938DB0E0D6
:101DA000A0E0AC01BD014C295D296E297F294F8B34
:101DB000588F698F7A8F83858871B1F4848D958D62
:101DC000A68DB78D8B8B9C8BAD8BBE8B81E08D836D
:101DD0001F701C831E821F82188619861A861B8616
:101DE0001C861D8681E0B8CF803109F0B4CF9E01FA
:101DF0002D5E3F4F8B8D9C8D0E943307882309F405
:101E0000AACF84E0E4CF3F924F925F926F927F928D
:101E10008F929F92AF92BF92CF92DF92EF92FF92FA
:101E20000F931F93CF93DF93CDB7DEB72B970FB6EA
:101E3000F894DEBF0FBECDBF7C01FE013196CE010E
:101E40000C966F0130E23193E817F907E1F7DA01F8
:101E500030E087E09D91B92E992309F43CC09E3271
:101E6000F1F48A30C9F480E02B960FB6F894DEBF07
:101E70000FBECDBFDF91CF911F910F91FF90EF90DB
:101E8000DF90CF90BF90AF909F908F907F906F909A
:101E90005F904F903F90089538E08AE0DBCFE8E60E
:101EA000F0E04491442321F031969413FACFDBCF34
:101EB0008317C8F24FED490F4E35A8F64FE9490F89
:101EC0004A3118F440EEB42EB90EF601E30FF11DBD
:101ED000B0823F5FBFCF8981803229F2322E8B01E1
:101EE000DB015B968D919C915C97F701948F838FBA
:101EF00016961D921D921D921C921997FB01128637
:101F0000138614861586F80182859385A485B58588
:101F1000438954896589768984179507A607B70789
:101F200008F04DC025E0B695A795979587952A9519
:101F3000D1F7F82FFF70AF2ED80115968C91823013
:101F400008F491CFC8010E94A00C97FD8CCFF80136
:101F500082859385A485B5854F96A11DB11D828785
:101F60009387A487B587F0E2AF9EB0011124655333
:101F70007E4F6115710509F476CFDB018C918823C2
:101F800041F0853E09F062C0BB2029F0BB24B39428
:101F9000BACFB1100EC0F701A28A809100019091D2
:101FA0000101A0910201B091030186879787A08B60
:101FB000B18BDB018C918111E9CFBB24B394832DCC
:101FC0008271823109F04FCFBB2009F44DC0F70177
:101FD000668577858089918941E00E949D048823E8
:101FE00009F441CFD70152968C91B0E28B9FC0018A
:101FF000112485539E4F009709F435CFFC013A9682
:1020000026E1DF011D922A95E9F72BE0F601DC01BC
:1020100001900D922A95E1F721E238E2FC01318B23
:10202000208B40E058E057874687338B228B318FD7
:10203000208F578B468B81E00E947204882309F41D
:1020400012CF432DD70152966C910AC04BE050E05D
:10205000C6010E942017892B09F055CF432D6A2D08
:10206000C7010E94970E00CFF8018581823009F4E4
:10207000FACEC8010E948608882309F4F4CED8015C
:102080005B96ED91FC915C9716968D909D90AD902E
:10209000BC901997B2E08B1A9108A108B108858508
:1020A00004C0880C991CAA1CBB1C8A95D2F7868593
:1020B0009785A089B189880E991EAA1EBB1E8481AE
:1020C00024013501480E511C611C711C84149504B7
:1020D000A604B70409F1E1E04E1A5108610871083D
:1020E00081E00E947204882309F4BDCEEBECF1E09C
:1020F00011928BEC93E08E179F07D1F7409200016D
:102100005092010160920201709203018091BC0122
:1021100081608093BC01DACFD8015B96ED91FC9190
:10212000258580E092E0A0E0B0E004C0880F991F10
:10213000AA1FBB1F2A95D2F7F801438954896589E4
:102140007689840F951FA61FB71F838B948BA58B51
:10215000B68BD70152961C928BEC91E04FCFEF9249
:10216000FF920F931F93CF93DF93EC017B018A01C2
:102170001B821A8288EE93E0A0E0B0E08C839D83FE
:10218000AE83BF838EE091E0998388838DE190E0F8
:102190000E943E159A8F898F009779F02DE1F70103
:1021A000DC0101900D922A95E1F74CE050E0B80176
:1021B000CE010C960E943D17188EDF91CF911F9192
:1021C0000F91FF90EF900895CF92DF92FF920F93BF
:1021D0001F93CF93DF93CDB7DEB7C755D1090FB6A5
:1021E000F894DEBF0FBECDBF8C01F62E1C821B8281
:1021F00082E3C82E81E0D82EDA82C9821E82CE0107
:1022000001960E949E07BE016F5F7F4FCE01CB9665
:102210000E94E30B19A218A2DF8ECE8E1BA221967C
:102220008FAD2197811122C0F8011382128288EEAE
:1022300093E0A0E0B0E084839583A683B7838EE02B
:1022400091E091838083128E118E1486C801C95A41
:10225000DF4F0FB6F894DEBF0FBECDBFDF91CF9139
:102260001F910F91FF90DF90CF9008952F2D4DE398
:1022700051E0BE01655C7F4FCE014E960E94030F78
:10228000882391F2CE01CB960E942A0A8F2D867068
:10229000863041F449A95AA96BA97CA9CE014E9672
:1022A0000E94F207BE01625E7F4FCE0101960E943E
:1022B000E30B4DE351E0BE016F5F7F4FC8010E9409
:1022C000AF10C4CF1F920F920FB60F9211242F930D
:1022D0003F934F935F936F937F938F939F93AF93AE
:1022E000BF93EF93FF938DEC93E00E945401FF9115
:1022F000EF91BF91AF919F918F917F916F915F917E
:102300004F913F912F910F900FBE0F901F901895F6
:102310001F920F920FB60F9211242F938F939F93BA
:10232000EF93FF93E091DD03F091DE038081E09174
:10233000E303F091E40382FD1BC090818091E603EA
:102340008F5F8F732091E703821741F0E091E603DE
:10235000F0E0E353FC4F958F8093E603FF91EF91FC
:102360009F918F912F910F900FBE0F901F901895F6
:102370008081F4CF1F920F920FB60F9211242F93EA
:102380003F938F939F93AF93BF938091C20190919E
:10239000C301A091C401B091C5013091C10123E0F6
:1023A000230F2D3758F50196A11DB11D2093C101B2
:1023B0008093C2019093C301A093C401B093C5015F
:1023C0008091C6019091C701A091C801B091C90147
:1023D0000196A11DB11D8093C6019093C701A093E2
:1023E000C801B093C901BF91AF919F918F913F9167
:1023F0002F910F900FBE0F901F90189526E8230F76
:102400000296A11DB11DD2CFEDECF3E01382128232
:1024100088EE93E0A0E0B0E084839583A683B78341
:1024200080E291E09183808385EC90E095878487BA
:1024300084EC90E09787868780EC90E0918B808B8E
:1024400081EC90E0938B828B82EC90E0958B848B77
:1024500086EC90E0978B868B118E128E138E148EE5
:10246000EAE6F4E080E580831182ECE6F4E0158290
:1024700016821186138682E090E0A0E0B0E08487A7
:102480009587A687B78713A215A614A682E391E0C5
:1024900093A782A717A6E5EBF4E0168217821086B1
:1024A0001186128613861486158616861786108A5C
:1024B000118A128A138A148A158A0895CF93DF939A
:1024C000CDB7DEB7E6970FB6F894DEBF0FBECDBF2F
:1024D000789484B5826084BD84B5816084BD85B5FF
:1024E000826085BD85B5816085BD80916E0081600B
:1024F00080936E00109281008091810082608093B1
:1025000081008091810081608093810080918000B2
:102510008160809380008091B10084608093B100DD
:102520008091B00081608093B00080917A008460D7
:1025300080937A0080917A00826080937A00809103
:102540007A00816080937A0080917A00806880931D
:102550007A001092C1001092F7041092F8041092C1
:10256000F9041092FA041092B7041092B804109271
:10257000B9041092BA040E9486026B017C014B01DF
:102580005C0188EB880E8BE0981EA11CB11C0E9498
:1025900086026C157D058E059F0528F08616970628
:1025A000A806B906A0F768EE73E080E090E00E940C
:1025B00054020E948F000E9486026093B7047093B9
:1025C000B8048093B9049093BA0469E471E08DEC87
:1025D00093E00E94EE0D0E9486026B017C014B018C
:1025E0005C018AE0880E911CA11CB11C0E9486022D
:1025F0006C157D058E059F0528F086169706A806A2
:10260000B906A0F781E08093CB040E948602609314
:10261000B7047093B8048093B9049093BA046AE540
:1026200071E08DEC93E00E94EE0D0E948F0061E658
:1026300071E08DEC93E00E94EE0D80919B04882365
:1026400021F086E994E00E942A0A10927704109201
:10265000750410927204109271048AE080937004E1
:102660000E9486028B01809170040E94B70061E095
:10267000809170040E94E301FFB6F8948091CA0132
:10268000811124C0EAEAF0E08491EEEBF0E094914D
:10269000E82FF0E0EE0FFF1FEA56FF4FA591B4912F
:1026A000EC91E92321F461E08AE00E94E3018AE0F1
:1026B0000E94B7008CB580618CBD8CB580648CBDE8
:1026C0008DE00E94B7008BE00E94B7008091CA01A4
:1026D0008F5F8093CA01FFBE82E580936A041092E7
:1026E0006B0480916A0490916B040E94C8022AE0F6
:1026F000F22E8FEF0E94A302FA94F110FACF8CE62B
:1027000094E00E94CB0220E030E0A90160E08CE67A
:1027100094E00E94E102F82E8093760481E0F8169E
:10272000C9F00E948602601B710B613D774058F32F
:1027300081E0809371048CE694E00E94980289E91C
:1027400091E00E94FD0D64E170E080E090E00E9465
:102750005402F9CF2AEA31E040E050E068E08CE62C
:1027600094E00E94E10282FF2AC0F09277048091F7
:102770007704C12CD12C7601823029F4C12CD12CC4
:10278000E12C80E4F82E20E030E0A90167E38CE63C
:1027900094E00E94E102A701960169E28CE694E0D0
:1027A0000E94E102809376048823D1F00E94860281
:1027B000601B710B613D774030F388E0BACF94E045
:1027C000F92E0E94AA0280937604FA94F110F9CFB0
:1027D0008A3A11F082E0ADCF82E080937704C7CFD0
:1027E000809177048230D1F420E030E0A9016AE3DF
:1027F0008CE694E00E94E102882311F086E099CFF4
:102800000E94AA02807C803C19F483E080937704C4
:102810000E94AA020E94AA020E94AA028CE694E0E8
:102820000E94980280E580936A0410926B0481E014
:102830000E94E704882309F472C086E994E00E94AC
:102840009E07882309F47BCF89E791E00E94FD0D64
:1028500067E1CE014C960E94E4108EE891E00E9460
:10286000FD0D01E010E0EDA9FEA9309739F1858159
:10287000882321F1B801CE0101960E942D0EBE01E0
:102880006F5F7F4FCE014C960E94100E89819A8116
:10289000009711F00E94DA15B801CE0101960E944E
:1028A0002D0EBE016F5F7F4F8DEC93E00E94100EE6
:1028B00089819A81009711F00E94DA150F5F1F4FEE
:1028C0000B30110581F68DA99EA9009741F00E9459
:1028D0002A0A8DA99EA90E94DA151EAA1DAA80EBBC
:1028E00091E00E94FD0D61E0CE0101960E94E4108E
:1028F000EA8DFB8D309721F18581882309F1CE0186
:1029000001960E943D0C892B89F0CE0101960E9410
:10291000C00D682F8DEC93E00E947601F0CF80E02F
:102920000E94E704882309F40ACF87CF8A8D9B8D04
:10293000009731F00E942A0A8A8D9B8D0E94DA1539
:1029400000E010E068EE73E080E090E00E94540246
:1029500001151105B9F30E944001882399F30E94E3
:102960000000F0CFBB274A3031F4992322F4BDE2B6
:10297000909581959F4F0C94BE14BB27FB01552762
:10298000AA27880F991FAA1FA41710F0A41B8395CC
:102990005051B9F7A05DAA3308F0A95DA193009743
:1029A00079F7B111B1931192CB010C94D714DC01DA
:1029B000FC01672F71917723E1F7329704C07C9176
:1029C0006D9370836291AE17BF07C8F308950E949C
:1029D0002915A59F900DB49F900DA49F800D911D6A
:1029E000112408952F923F924F925F926F927F929F
:1029F0008F929F92AF92BF92CF92DF92EF92FF920F
:102A00000F931F93CF93DF93CDB7DEB7CA1BDB0BBA
:102A10000FB6F894DEBF0FBECDBF09942A8839885F
:102A200048885F846E847D848C849B84AA84B98466
:102A3000C884DF80EE80FD800C811B81AA81B98172
:102A4000CE0FD11D0FB6F894DEBF0FBECDBFED0186
:102A50000895A29FB001B39FC001A39F700D811D77
:102A60001124911DB29F700D811D1124911D089597
:102A7000EE0FFF1F0590F491E02D09940F931F9323
:102A8000CF93DF938230910510F482E090E0E091E3
:102A9000FD04F091FE0430E020E0B0E0A0E03097CB
:102AA00099F42115310509F44AC0281B390B24304B
:102AB0003105D8F58A819B816115710589F1FB018A
:102AC00093838283FE0111C0408151810281138171
:102AD00048175907E0F04817590799F4109761F023
:102AE00012960C93129713961C933296CF01DF9196
:102AF000CF911F910F9108950093FD041093FE0450
:102B0000F4CF2115310551F04217530738F0A901D0
:102B1000DB019A01BD01DF01F801C1CFEF01F9CF5F
:102B20009093FE048093FD04CDCFFE01E20FF31FCE
:102B3000819391932250310939832883D7CF2091F3
:102B4000FB043091FC04232B41F4209106013091C9
:102B500007013093FC042093FB0420910401309181
:102B600005012115310541F42DB73EB7409108010B
:102B700050910901241B350BE091FB04F091FC04FA
:102B8000E217F307A0F42E1B3F0B2817390778F044
:102B9000AC014E5F5F4F2417350748F04E0F5F1FA3
:102BA0005093FC044093FB04819391939FCFF0E0FA
:102BB000E0E09CCFCF93DF930097E9F0FC013297E0
:102BC00013821282A091FD04B091FE04ED0130E069
:102BD00020E01097A1F420813181820F931F209172
:102BE000FB043091FC042817390709F061C0F09309
:102BF000FC04E093FB04DF91CF910895EA01CE1726
:102C0000DF07E8F54A815B819E0141155105B1F767
:102C1000E901FB83EA8349915991C40FD51FEC1751
:102C2000FD0761F4808191810296840F951FE9016F
:102C300099838883828193819B838A83F0E0E0E09B
:102C400012968D919C9113970097B9F52D913C9117
:102C50001197CD010296820F931F2091FB043091B2
:102C6000FC042817390739F6309751F51092FE0405
:102C70001092FD04B093FC04A093FB04BCCFD3835B
:102C8000C28340815181840F951FC817D90761F411
:102C90004E5F5F4F88819981480F591F5183408350
:102CA0008A819B81938382832115310509F0B0CFFE
:102CB000F093FE04E093FD049ECFFD01DC01C0CF44
:102CC00013821282D7CFB0E0A0E0E9E6F6E10C94DF
:102CD000F4148C01009751F4CB010E943E158C0135
:102CE000C801CDB7DEB7E0E10C941015FC01E60F8A
:102CF000F71F9C0122503109E217F30708F49DC029
:102D0000D901CD91DC911197C617D70798F0C5303E
:102D1000D10530F3CE0104978617970708F3C61B39
:102D2000D70B2297C193D1936D937C93CF010E94CF
:102D3000DA15D6CF5B01AC1ABD0A4C018C0E9D1E74
:102D4000A091FD04B091FE04512C412CF12CE12CFA
:102D5000109731F58091FB049091FC04881599053A
:102D600009F05CC04616570608F058C0809104016F
:102D700090910501009741F48DB79EB740910801ED
:102D800050910901841B950BE817F90708F055C00D
:102D9000F093FC04E093FB04F90171836083A0CFFE
:102DA0008D919C91119712966C90129713967C902E
:102DB0001397A815B90559F56C0142E0C40ED11C52
:102DC000CA14DB0420F1AC014A195B09DA0112963E
:102DD000159780F06282738251834083D9016D938D
:102DE0007C93E114F10471F0D7011396FC93EE93F8
:102DF000129776CF22968C0F9D1FF90191838083C5
:102E0000F301EFCFF093FE04E093FD0469CF481681
:102E1000590608F42C017D01D3019ACFCB010E9401
:102E20003E157C01009749F0AE01B8010E942D17B4
:102E3000C8010E94DA15870153CF10E000E050CF9F
:102E4000FB01DC0104C08D910190801921F44150F7
:102E50005040C8F7881B990B0895FB01DC0102C0A4
:102E600001900D9241505040D8F70895FB01DC01CC
:102E700001900D920020E1F70895FB01DC01415023
:102E8000504048F001900D920020C9F701C01D92FA
:0C2E900041505040E0F70895F894FFCF47
:102E9C00FFFFFFFF0000FF048000000000008A0C11
:102EAC006D0C5D0C340C3D0CC00DCA0D0000000007
:102EBC007601D6000301C301340112012601000082
:102ECC000000D20BD600CC09330C0D0A00646174DF
:102EDC00616C6F672E74787400564D4450565F3198
:102EEC007C315F564D4450560A00564D4450525F4B
:102EFC0000496E697469616C697A696E6720534424
:102F0C0020636172642E2E2E00696E697469616C87
:102F1C00697A6174696F6E20646F6E652E00546FF0
:102F2C00207364636172643A00696E697469616CE0
:102F3C00697A6174696F6E206661696C65642E00D4
:0A2F4C0052656164696E673A000087
:107800000C94343C0C94513C0C94513C0C94513CE1
:107810000C94513C0C94513C0C94513C0C94513CB4
:107820000C94513C0C94513C0C94513C0C94513CA4
:107830000C94513C0C94513C0C94513C0C94513C94
:107840000C94513C0C94513C0C94513C0C94513C84
:107850000C94513C0C94513C0C94513C0C94513C74
:107860000C94513C0C94513C11241FBECFEFD8E036
:10787000DEBFCDBF11E0A0E0B1E0ECE9FFE702C060
:1078800005900D92A230B107D9F712E0A2E0B1E065
:1078900001C01D92AD30B107E1F70E942D3D0C945F
:1078A000CC3F0C94003C982F959595959595959582
:1078B000905D8F708A307CF0282F295A8091C0000B
:1078C00085FFFCCF9093C6008091C00085FFFCCF60
:1078D0002093C6000895282F205DF0CF982F809127
:1078E000C00085FFFCCF9093C6000895EF92FF92F1
:1078F0000F931F93EE24FF2487018091C00087FD22
:1079000017C00894E11CF11C011D111D81E4E8164B
:1079100082E4F8068FE0080780E0180770F3E09132
:107920000401F091050109958091C00087FFE9CF1E
:107930008091C6001F910F91FF90EF9008950E94D3
:10794000763C982F8091C00085FFFCCF9093C600B5
:1079500091362CF490330CF09053892F089597555D
:10796000892F08951F930E949F3C182F0E949F3CCF
:107970001295107F810F1F9108951F93182F882350
:1079800021F00E94763C1150E1F71F9108951F935A
:10799000182F0E94763C803249F0809103018F5F5E
:1079A000809303018530C1F01F9108958091C0003C
:1079B00085FFFCCF84E18093C6008091C00085FFE5
:1079C000FCCF1093C6008091C00085FFFCCF80E102
:1079D0008093C6001F910895E0910401F091050184
:1079E00009951F9108950E94763C803241F0809164
:1079F00003018F5F80930301853081F008958091AA
:107A0000C00085FFFCCF84E18093C6008091C00058
:107A100085FFFCCF80E18093C6000895E0910401CA
:107A2000F09105010995089540E951E08823A1F0FE
:107A30002D9A28EE33E0FA013197F1F721503040CA
:107A4000D1F72D9828EE33E0FA013197F1F7215064
:107A50003040D1F7815061F708953F924F925F9285
:107A60006F927F928F929F92AF92BF92CF92DF924E
:107A7000EF92FF920F931F93CF93DF93000080E16B
:107A80008093C4001092C50088E18093C10086E015
:107A90008093C2005098589A259A81E00E94143D24
:107AA00024E1F22E9EE1E92E85E9D82E0FE0C02ECA
:107AB00010E1B12EAA24A394B1E49B2EA6E58A2E50
:107AC000F2E57F2EE0E26E2E79E4572E63E5462E36
:107AD00050E5352E0E94763C8033B1F18133B9F107
:107AE000803409F46FC0813409F476C0823409F41B
:107AF00085C0853409F488C0803531F1823521F1A3
:107B0000813511F1853509F485C0863509F48DC0BC
:107B1000843609F496C0843709F403C1853709F423
:107B200072C1863709F466C0809103018F5F80932C
:107B30000301853079F6E0910401F0910501099582
:107B40000E94763C803351F60E94F33CC3CF0E94E2
:107B5000763C803249F78091C00085FFFCCFF092DF
:107B6000C6008091C00085FFFCCF9092C600809136
:107B7000C00085FFFCCF8092C6008091C00085FFC9
:107B8000FCCF7092C6008091C00085FFFCCF609250
:107B9000C6008091C00085FFFCCF5092C600809146
:107BA000C00085FFFCCF4092C6008091C00085FFD9
:107BB000FCCF3092C6008091C00085FFFCCFB09210
:107BC000C60088CF0E94763C863808F4BDCF0E945C
:107BD000763C0E94F33C7ECF0E94763C803809F4CC
:107BE0009CC0813809F40BC1823809F43CC1883942
:107BF00009F48FC080E00E94C73C6CCF84E10E94F2
:107C0000BD3C0E94F33C66CF85E00E94BD3C0E94D3
:107C1000F33C60CF0E94763C809306010E94763C44
:107C2000809307010E94F33C55CF0E94763C80333D
:107C300009F41DC183E00E94BD3C80E00E94C73C66
:107C400049CF0E94763C809309020E94763C809343
:107C5000080280910C028E7F80930C020E94763C79
:107C6000853409F415C18091080290910902892B8D
:107C700089F000E010E00E94763CF801E85FFE4FDA
:107C800080830F5F1F4F80910802909109020817AF
:107C9000190788F30E94763C803209F045CF809125
:107CA0000C0280FF01C16091060170910701660F0F
:107CB000771F7093070160930601A0910802B091AD
:107CC00009021097C9F0E8E0F1E09B01AD014E0F09
:107CD0005F1FF999FECF32BD21BD819180BDFA9A17
:107CE000F99A2F5F3F4FE417F50799F76A0F7B1F4B
:107CF00070930701609306018091C00085FFFCCF5F
:107D0000F092C6008091C00085FFFCCFB092C60003
:107D1000E1CE83E00E94C73CDDCE82E00E94C73CFA
:107D2000D9CE0E94763C809309020E94763C8093D3
:107D300008028091060190910701880F991F909386
:107D40000701809306010E94763C853409F4A6C0A1
:107D500080910C028E7F80930C020E94763C8032D0
:107D600009F0B8CE8091C00085FFFCCFF092C6002C
:107D7000609108027091090261157105B9F140E046
:107D800050E080910C02A82FA170B82FB27011C0E2
:107D9000BB2309F45CC0E0910601F0910701319624
:107DA000F0930701E09306014F5F5F4F46175707B7
:107DB000E8F4AA2369F3F999FECF209106013091E6
:107DC000070132BD21BDF89A90B58091C00085FFB2
:107DD000FCCF9093C6002F5F3F4F30930701209355
:107DE00006014F5F5F4F4617570718F38091C00099
:107DF00085FDE5CE8091C00085FFF8CFE0CE81E023
:107E00000E94C73C67CE0E94763C803209F08CCE3F
:107E10008091C00085FFFCCFF092C6008091C00029
:107E200085FFFCCFE092C6008091C00085FFFCCFAB
:107E3000D092C6008091C00085FFFCCFC092C600E2
:107E40008091C00085FFFCCFB092C60043CEE09188
:107E50000601F091070194918091C00085FFFCCF4D
:107E60009093C6009CCF80E10E94C73C33CE0E9415
:107E7000763C0E94763C182F0E94763C112309F430
:107E800083C0113009F484C08FE00E94C73C22CE29
:107E900080910C02816080930C02E5CE80910C02EF
:107EA000816080930C0259CF809107018823880F4D
:107EB000880B8A2180930B02809106019091070123
:107EC000880F991F90930701809306018091080203
:107ED00080FF09C080910802909109020196909359
:107EE000090280930802F894F999FECF1127E091D6
:107EF0000601F0910701C8E0D1E08091080290915D
:107F00000902103091F40091570001700130D9F34B
:107F100003E000935700E89500915700017001308D
:107F2000D9F301E100935700E89509901990009169
:107F3000570001700130D9F301E000935700E89534
:107F40001395103498F011270091570001700130FB
:107F5000D9F305E000935700E895009157000170B0
:107F60000130D9F301E100935700E895329602976A
:107F700009F0C7CF103011F00296E5CF112480919F
:107F8000C00085FFB9CEBCCE8EE10E94C73CA2CD19
:0C7F900085E90E94C73C9ECDF894FFCF0D
:027F9C00800063
:040000030000780081
:00000001FF