:100000000C9462000C948A000C948A000C948A0070
:100010000C948A000C948A000C948A000C948A0038
:100020000C948A000C948A000C948A000C948A0028
:100030000C948A000C948A000C948A000C948A0018
:100040000C94D4070C948A000C94A2070C947C079F
:100050000C948A000C948A000C948A000C948A00F8
:100060000C941E080C948A00000000002400270055
:100070002A0000000000250028002B0000000000DE
:1000800023002600290004040404040404040202DA
:100090000202020203030303030301020408102007
:1000A0004080010204081020010204081020000012
:1000B0000008000201000003040700000000000027
:1000C00000003D0911241FBECFEFD8E0DEBFCDBF39
:1000D00023E0A4EBB1E001C01D92A63EB207E1F718
:1000E00011E0A0E0B1E0E2EAF7E102C005900D9274
:1000F000A43BB107D9F710E0C2E6D0E004C02197D5
:10010000FE010E94C90BC136D107C9F70E94110A2E
:100110000C94CF0B0C940000ECE7F2E0A089B189BD
:1001200082E08C93A485B5851C92A685B7858FEC5B
:100130008C93108EA489B58986E08C93A289B389AB
:100140008C9180618C93A289B3898C9188608C9307
:10015000A289B3898C9180688C930288F389E02D01
:1001600080818F7D8083089596E0899FD00111243E
:10017000A958BC4F90967C936E935F9791E09196AF
:100180009C939197E091E403F091E5039091E30350
:10019000992339F0309751F0811108C08091930371
:1001A0000994309719F05C968C91FACF0895AF922C
:1001B000BF92CF92DF92EF92FF920F931F93CF9354
:1001C000DF936C017B018B01040F151FEB015E01B6
:1001D000AE18BF08C017D10759F06991D601ED914B
:1001E000FC910190F081E02DC6010995892B79F7EA
:1001F000C501DF91CF911F910F91FF90EF90DF909C
:10020000CF90BF90AF900895089508950895FC0190
:10021000538D448D252F30E0842F90E0821B930B6B
:10022000541710F0CF96089501970895FC01918D11
:10023000828D981761F0A28DAE0FBF2FB11D5D9614
:100240008C91928D9F5F9F73928F90E008958FEFB6
:100250009FEF0895FC01918D828D981731F0828D6A
:10026000E80FF11D858D90E008958FEF9FEF0895C1
:10027000FC01918D228D892F90E0805C9F4F821B25
:1002800091098F73992708958CE792E00E943801B5
:1002900021E0892B09F420E0822F089580E090E08E
:1002A000892B29F00E94440181110C9400000895CB
:1002B000FC01A48DA80FB92FB11DA35ABF4F2C91DB
:1002C000848D90E001968F739927848FA689B789D2
:1002D0002C93A089B1898C91837080648C93938DC9
:1002E000848D981306C00288F389E02D80818F7D6C
:1002F00080830895EF92FF920F931F93CF93DF9324
:10030000EC0181E0888F9B8D8C8D98131AC0E88951
:10031000F989808185FF15C09FB7F894EE89FF8920
:100320006083E889F98980818370806480839FBFBE
:1003300081E090E0DF91CF911F910F91FF90EF90BE
:100340000895F62E0B8D10E00F5F1F4F0F731127CE
:10035000E02E8C8D8E110CC00FB607FCFACFE88909
:10036000F989808185FFF5CFCE010E945801F1CF38
:10037000EB8DEC0FFD2FF11DE35AFF4FF0829FB77D
:10038000F8940B8FEA89FB8980818062CFCFCF936D
:10039000DF93EC01888D8823B9F0AA89BB89E889AD
:1003A000F9898C9185FD03C0808186FD0DC00FB653
:1003B00007FCF7CF8C9185FFF2CF808185FFEDCFD1
:1003C000CE010E945801E9CFDF91CF91089583308B
:1003D00081F028F4813099F08230A9F008958730B7
:1003E000A9F08830C9F08430B1F4809180008F7D0D
:1003F00003C0809180008F7780938000089584B53A
:100400008F7784BD089584B58F7DFBCF8091B00038
:100410008F778093B00008958091B0008F7DF9CFE1
:10042000CF93DF93282F30E0F901E255FF4F8491FD
:10043000F901E656FF4FD491F901EA57FF4FC491F5
:10044000CC23A1F081110E94E701EC2FF0E0EE0F28
:10045000FF1FE458FF4FA591B491EC91ED2381E08B
:1004600090E009F480E0DF91CF91089580E090E082
:10047000FACF862F0C9410021F93CF93DF93282F6F
:1004800030E0F901E255FF4F8491F901E656FF4F44
:10049000D491F901EA57FF4FC491CC23A9F0162F4C
:1004A00081110E94E701EC2FF0E0EE0FFF1FEE58E4
:1004B000FF4FA591B4918FB7F894EC91111108C03A
:1004C000D095DE23DC938FBFDF91CF911F910895EC
:1004D000DE2BF8CF862F642F0C943C02CF93DF9352
:1004E00090E0FC01E656FF4F24918A579F4FFC0194
:1004F00084918823C9F090E0880F991FFC01E85986
:10050000FF4FA591B491FC01EE58FF4FC591D491D6
:1005100061110DC09FB7F8948C91209582238C9324
:100520008881282328839FBFDF91CF91089562306F
:1005300051F49FB7F8943C91822F809583238C933C
:10054000E8812E2BEFCF8FB7F894EC912E2B2C93C4
:100550008FBFEACF862F642F0C946E023FB7F894BA
:1005600080916B0290916C02A0916D02B0916E022D
:1005700026B5A89B05C02F3F19F00196A11DB11DFE
:100580003FBFBA2FA92F982F8827BC01CD01620F3A
:10059000711D811D911D42E0660F771F881F991FF5
:1005A0004A95D1F708958F929F92AF92BF92CF92C2
:1005B000DF92EF92FF924B015C010E94AE026B0151
:1005C0007C010E94AE026C197D098E099F09683E6C
:1005D000734081059105A8F321E0821A9108A108D2
:1005E000B10888EEC80E83E0D81EE11CF11C81140E
:1005F0009104A104B10429F7FF90EF90DF90CF9010
:10060000BF90AF909F908F9008952FB7F89460910E
:100610006702709168028091690290916A022FBF0F
:1006200008950F931F93CF93DF93C82FD62F86E0A3
:10063000C89FF0011124E958FC4F11A2878D90A1A9
:1006400081309105F1F058F082309105F1F1039776
:1006500009F440C0DF91CF911F910F910895662357
:10066000C9F361E070E08C2F0E94B4000E94050382
:100670006093CF037093D0038093D1039093D20300
:10068000E9CF0E9405030091CF031091D003209180
:10069000D1033091D203AB01BC01401B510B620B63
:1006A000730B8091E1039091E203B0E0A0E0841726
:1006B0009507A607B70748F462E070E08C2FDF913A
:1006C000CF911F910F910C94B40063E070E0D111B1
:1006D000C1CFF4CF70E060E0F1CF6F927F928F9244
:1006E0009F92AF92BF92CF92DF92EF92FF920F93C1
:1006F0001F93CF93DF9381E08093E3030E94050370
:100700000091D3031091D4032091D5033091D603E7
:10071000AB01BC01401B510B620B730B8091DF03DB
:100720009091E003B0E0A0E084179507A607B70713
:1007300008F014C1C0E08091DD03C81760F4E091B7
:10074000D903F091DA03EC0FF11D62E080810E9481
:100750006E02CF5FF0CF712C812C912C54018394C9
:100760008091DE03781608F05FC0072D10E0E0915D
:10077000DB03F091DC03E00FF11F61E080810E9458
:100780006E02E091DB03F091DC03E00FF11F60E00B
:1007900080810E943C02D501C401072C04C0880F4F
:1007A000991FAA1FBB1F0A94D2F76C017C01E09429
:1007B000F094612C8091DD036816F8F4C62DD0E02A
:1007C000E091D903F091DA03EC0FFD1F80810E94C4
:1007D00010022496CC0FDD1FC958DC4F892B41F441
:1007E000888199818C299D29998388836394E2CF9C
:1007F000888199818E219F21F7CFE091DB03F091D1
:10080000DC03E00FF11F61E080810E943C028091D7
:10081000DB039091DC03080F191F60E0F801808171
:100820000E946E0273949CCFC7E7D3E0FE018FEF66
:100830009FEF278D30A1232B21F4148E968F858F67
:1008400011A2369623E0E33BF20799F7F12C96E0EC
:10085000D92E8091DD03F81608F050C0E12C0F2D41
:1008600010E0000F111F01581C4F2091DE03E2160B
:1008700008F042C0F801608171810E2C02C07695AB
:1008800067950A94E2F7F29E900111242E0D311D16
:10089000E7E7F3E080E0458D568D2417350709F42E
:1008A00061C08F5F36968A30B1F760FF23C0E7E7FB
:1008B000F3E090E080E0448D411117C0E091D70350
:1008C000F091D803E20FF31F4081D89EF001D99E2A
:1008D000F00D1124E958FC4F448F368F258F10A25C
:1008E000178E61E00E94110305C0019636968A308A
:1008F000910509F7E394B9CFF394ABCF10E089A148
:100900008111182F2696F3E0C33BDF07C1F70E9441
:1009100005036093D3037093D4038093D50390931E
:10092000D6031123D9F0809198038823B9F08091E0
:10093000960390919703019789F480919303DF9137
:10094000CF911F910F91FF90EF90DF90CF90BF90CC
:10095000AF909F908F907F906F9008951092E303D7
:1009600080E0EDCF6170BECF08952091F501260F94
:100970003327331F21323105ECF420913E02FC0174
:1009800090E080E0243069F082E00895A091F501C4
:100990002191AC014B525E4FA40FB52FB11D2C938A
:1009A0000196861798F38091F501680F6093F50121
:1009B00080E0089581E0089510923E0281E08093E6
:1009C0003D021092180261E082E10E943C0261E067
:1009D00083E10E943C02E9EBF0E080818E7F80831E
:1009E00080818D7F808388E48093B80085E4809344
:1009F000BC000895CF93DF9391E09093D4018823B6
:100A0000B9F0C091B800D091BA008091BC008A7B47
:100A10008093BC0060E082E10E943C0260E083E1E0
:100A20000E943C020E94DC04D093BA00C093B8003C
:100A3000DF91CF910895E091760280917502E817D9
:100A400030F4F0E0EC54FE4F808190E008958FEF99
:100A50009FEF089590917602809175022FEF3FEFFE
:100A6000981748F4E92FF0E0EC54FE4F208130E075
:100A70009F5F90937602C9010895809175029091CD
:100A80007602891B990B0895CF92DF92EF92FF9225
:100A90000F931F93CF93DF937C01CB018A012091A9
:100AA0004402222389F0EB016B01C40ED51ECC1544
:100AB000DD0569F06991D701ED91FC910190F0811C
:100AC000E02DC7010995F3CF642F0E94B504C8013A
:100AD000DF91CF911F910F91FF90EF90DF90CF901A
:100AE0000895CF93DF931F92CDB7DEB7698320912E
:100AF00044022223F9F020917302203258F021E0C1
:100B000030E0FC013383228390E080E00F90DF919E
:100B1000CF91089580917402E82FF0E0EB5BFD4FD8
:100B2000998190838F5F809374028093730281E038
:100B300090E0ECCF61E0CE0101960E94B504F7CFC2
:100B4000CF92DF92EF92FF920F931F93CF93DF9399
:100B5000FC01C48121E020934402C09365021092FD
:100B60007402109273028385682B89E193E00E94DE
:100B70007105D0917302D13208F092C00E94AE028A
:100B80006B017C0180913E02811165C082E08093FF
:100B90003E0281E080933D028FEF80933C021092F1
:100BA0003B02D0933A02A5E4B2E0EAE1F2E080E051
:100BB000D81385C01092190280911902CC0FC82B4E
:100BC000C093190280911802813009F07CC0109204
:100BD00018020E94AE026B017C0180911902809381
:100BE000BB008091400290914102A0914202B091DD
:100BF0004302892B8A2B8B2B99F00E94AE02009125
:100C000040021091410220914202309143026C193E
:100C10007D098E099F090617170728073907E0F194
:100C20008091BC0083FDD9CF85EC8093BC000E94ED
:100C3000AE026B017C0180913E02823009F445C016
:100C400080913C028F3F61F180913C02803241F102
:100C500080913C0225C08091400290914102A09178
:100C60004202B0914302892B8A2B8B2B09F48ACF45
:100C70000E94AE0200914002109141022091420276
:100C8000309143026C197D098E099F0906171707D9
:100C90002807390708F076CF80913F020E94FA04B6
:100CA000109274021092730210924402DF91CF915D
:100CB0001F910F91FF90EF90DF90CF9008959D913D
:100CC00091938F5F75CF85EEB0CF80914002909168
:100CD0004102A0914202B0914302892B8A2B8B2BB7
:100CE00009F4A9CF0E94AE02009140021091410286
:100CF00020914202309143026C197D098E099F09AF
:100D0000061717072807390708F095CFC5CF90E0D9
:100D100080E00895FB0101900020E9F73197AF01D1
:100D2000461B570BDC01ED91FC910280F381E02D15
:100D300009940F931F93CF938C01C62F0E94A00597
:100D40006C2F6460C8010E94A0056C2F6B7FC801E6
:100D50000E94A00583EC90E00197F1F7CF911F91DD
:100D60000F9108950F931F93CF93DF938C01D62F8C
:100D7000C42F607F642B0E94990680E1D89FB00148
:100D800011246C2BC801DF91CF911F910F910C940E
:100D90009906CF93DF93CDB7DEB728970FB6F894B7
:100DA000DEBF0FBECDBF98E0E0E0F1E0DE011196BE
:100DB00001900D929A95E1F790917303691710F0E5
:100DC0006FEF690F262F30E0220F331F41E050E014
:100DD0004C0F5D1F240F351FF9016081680F60689B
:100DE00040E08BE693E028960FB6F894DEBF0FBE86
:100DF000CDBFDF91CF910C94B20680917B0281111F
:100E000020C06AE571E08CE792E00E948A0663E602
:100E100071E08CE792E00E948A0660E084E00E9424
:100E2000C90666E671E08BE693E00E948A0661E0FF
:100E300088E00E94C9066AE571E08BE693E00C94B5
:100E40008A066BE771E08CE792E00E948A0663E60F
:100E500071E08CE792E00E948A0660E084E00E94E4
:100E6000C9066FE671E08BE693E00E948A0661E0B6
:100E700088E00E94C90668E771E0DFCF41E00E9488
:100E8000B20681E090E0089585ED8093BC008091EA
:100E9000400290914102A0914202B0914302079614
:100EA000A11DB11D23E0B695A795979587952A9525
:100EB000D1F72091BC0024FD03C010923E0208959A
:100EC0004091400250914102609142027091430270
:100ED000452B462B472B69F30097A105B10541F03F
:100EE00025E32A95F1F700000197A109B109E1CFA7
:100EF00080913F020C94FA041F920F920FB60F924A
:100F000011242F933F934F935F936F937F938F930E
:100F10009F93AF93BF93EF93FF938CE792E00E9470
:100F20005801FF91EF91BF91AF919F918F917F9168
:100F30006F915F914F913F912F910F900FBE0F9046
:100F40001F9018951F920F920FB60F9211242F9396
:100F50008F939F93EF93FF93E0918C02F0918D021A
:100F60008081E0919202F091930282FD1BC09081FA
:100F7000809195028F5F8F7320919602821741F0C6
:100F8000E0919502F0E0E458FD4F958F8093950233
:100F9000FF91EF919F918F912F910F900FBE0F9026
:100FA0001F9018958081F4CF1F920F920FB60F9269
:100FB00011242F933F938F939F93AF93BF9380916F
:100FC000670290916802A0916902B0916A02309123
:100FD000660223E0230F2D3758F50196A11DB11DA0
:100FE000209366028093670290936802A09369023F
:100FF000B0936A0280916B0290916C02A0916D0295
:10100000B0916E020196A11DB11D80936B02909369
:101010006C02A0936D02B0936E02BF91AF919F914D
:101020008F913F912F910F900FBE0F901F901895A9
:1010300026E8230F0296A11DB11DD2CF1F920F9259
:101040000FB60F9211242F933F934F935F936F939B
:101050007F938F939F93AF93BF93EF93FF93809171
:10106000B900887F803609F44AC0F0F5883209F467
:10107000A7C018F5803109F49BC0B8F4882309F49F
:10108000F9C0883009F494C0FF91EF91BF91AF91FE
:101090009F918F917F916F915F914F913F912F9190
:1010A0000F900FBE0F901F901895883109F488C0DB
:1010B000803251F780933C0214C0803409F49DC003
:1010C00040F48033B9F38833F9F680933C0285EC21
:1010D000B0C0803509F485C0883509F496C08834DD
:1010E00099F60E944407D0CF883909F48CC038F5AE
:1010F000883729F050F4883611F0803729F683E0DC
:1011000080933E021092170257C0883809F47BC0C2
:10111000803919F0803809F0B7CF809117028032FA
:1011200008F071C0E091170281E08E0F80931702E2
:101130008091BB00F0E0E950FE4F80833DC0803BD2
:1011400039F0E0F4803A09F479C0883A09F09CCF8C
:1011500084E080933E021092F6011092F501E09136
:101160007102F091720209958091F50181110FC011
:1011700081E08093F5011092D50109C0803C09F40B
:10118000A6CF883C09F4A3CF883B09F07DCFE0913E
:10119000F60181E08E0F8093F601F0E0EB52FE4FF6
:1011A00080818093BB009091F6018091F50129C068
:1011B000809119028093BB0085EC8093BC0064CFC2
:1011C00090913B0280913A02981758F5E0913B02CA
:1011D00081E08E0F80933B02F0E0E65EFD4F808160
:1011E000E9CFE0913B0281E08E0F80933B0280913A
:1011F000BB00F0E0E65EFD4F808390913B02809162
:101200003A029817C8F285E8D8CFE0913B0281E016
:101210008E0F80933B028091BB00F0E0E65EFD4FB5
:10122000808380913D0281115CCF81E08093180220
:1012300084EA8093BC0010923E0226CF85EC809316
:10124000BC0010923E0280911702803230F4E0918F
:101250001702F0E0E950FE4F10826091170270E033
:10126000E0916F02F091700287EF91E00995109282
:1012700017020ACF10923C0234CF10927F021092D4
:101280007E0288EE93E0A0E0B0E08093800290932D
:101290008102A0938202B09383022CE031E030936C
:1012A0007D0220937C0225EC30E03093890220936C
:1012B000880224EC30E030938B0220938A0220ECE9
:1012C00030E030938D0220938C0221EC30E030939B
:1012D0008F0220938E0222EC30E030939102209313
:1012E000900226EC30E03093930220939202109209
:1012F0009502109296021092970210929802109204
:101300001C0310921B0380931D0390931E03A09354
:101310001F03B09320038EE191E090931A03809312
:10132000190310922B0310922C0310922D0310928C
:101330002E0310922F03109230031092310310925B
:10134000320310923303109234031092350310923B
:10135000360310923703109238031092390310921B
:101360003A031092790310927D0310927C0310923D
:101370007E038CE391E09093780380937703E3E915
:10138000F3E01082148213821582369683E0EF3CDC
:10139000F807B9F786E491E09093DA038093D903D4
:1013A00082E491E09093DC038093DB0384E08093FC
:1013B000DD038093DE038AE491E09093D803809369
:1013C000D7038AE090E09093E0038093DF0384EFFB
:1013D00091E09093E2038093E1031092E503109271
:1013E000E4031092D3031092D4031092D503109209
:1013F000D6031092E30310926E0310926D0380E304
:1014000091E090936C0380936B0387E280936F036A
:1014100080E18093740382E08093750310927603D9
:101420000895789484B5826084BD84B5816084BD5C
:1014300085B5826085BD85B5816085BD80916E0072
:10144000816080936E0010928100809181008260A3
:1014500080938100809181008160809381008091E0
:1014600080008160809380008091B10084608093CF
:10147000B1008091B00081608093B00080917A00CB
:10148000846080937A0080917A00826080937A00F1
:1014900080917A00816080937A0080917A008068E0
:1014A00080937A001092C100109267031092680333
:1014B0001092690310926A03109227031092280376
:1014C0001092290310922A030E9405036B017C01EC
:1014D0004B015C0188EB880E8BE0981EA11CB11CAF
:1014E0000E9405036C157D058E059F0528F0861664
:1014F0009706A806B906A0F768EE73E080E090E0D2
:101500000E94D3020E948C000E940503609327036F
:10151000709328038093290390932A0361E871E074
:101520008CE792E00E948A060E9405036B017C0111
:101530004B015C018AE0880E911CA11CB11C0E9429
:1015400005036C157D058E059F0528F08616970608
:10155000A806B906A0F781E080933B030E9405032B
:1015600060932703709328038093290390932A03A1
:1015700062E971E08CE792E00E948A060E948C008A
:1015800069E971E08CE792E00E948A061092760287
:101590001092750210927402109273020E94DC0481
:1015A00084E091E0909372028093710285E091E073
:1015B0009093700280936F02109270038091750374
:1015C000823018F098E0909370038093730362E385
:1015D00070E080E090E00E94D302609176038BE699
:1015E00093E00E94A00568EE73E080E090E00E9426
:1015F000D30260E38BE693E00E949906CBE4D6E445
:10160000CE010197F1F760E38BE693E00E94990623
:101610002197F1F760E38BE693E00E94990683E55A
:1016200092E00197F1F760E28BE693E00E94990661
:1016300060917003606240E08BE693E00E94B20626
:1016400084E08093710340E06CE08BE693E00E94BD
:10165000B20640E061E08BE693E00E94B206CBE385
:10166000DFE1CE010197F1F782E08093720340E061
:1016700066E08BE693E00E94B20640E062E08BE613
:1016800093E00E94B2062197F1F788E080937603F9
:1016900060E08BE693E00E94A0056DEA71E08CE7C4
:1016A00092E00E948A060E94FD0680E0E82E80E01B
:1016B000F82E80917B028823F1F10E946D03182F90
:1016C000882349F1682F8CE792E00E947A0163E653
:1016D00071E08CE792E00E948A06C0917702D09177
:1016E000780260E08C2F8C5F0E94C90641E0612F78
:1016F0008BE693E00E94B2062196D0937802C093C5
:101700007702289741F410927B021092780210928F
:1017100077020E94FD0664E170E080E090E00E94A4
:10172000D302E114F10429F20E944401882309F252
:101730000E940000BECF0E946D03182F882359F32A
:10174000682F8CE792E00E947A0163E671E08CE7F3
:1017500092E00E948A06C0917902D0917A0260E0FC
:101760008C2F8B5F0E94C90641E0612F8BE693E0CE
:101770000E94B2062196D0937A02C09379022697EE
:1017800051F681E080937B0210927A0210927902E6
:10179000C0CFEE0FFF1F0590F491E02D0994F8944F
:0217A000FFCF79
:1017A2000000400014005400000000007A01D7003D
:1017B2000701C701380116012A0100000000710566
:1017C2004405870606013D052A051B0500000000A9
:1017D2003E07D7008706B40400000000AA026A028E
:1017E2003902090807060504030231323341343550
:1017F2003642373839432A30234444495341524D03
:101802004544000D0A00202A2A2A2A2A2A20002AD0
:101812002A2A2A2A2A2A2A0020202041524D4544D7
:1018220000564D4450565F317C315F564D44505600
:101832000A00564D4450525F00496E697469616CEA
:10184200697A696E67204C43442E2E2E00446F6ED7
:04185200652E0A00F5
:107800000C94343C0C94513C0C94513C0C94513CE1
:107810000C94513C0C94513C0C94513C0C94513CB4
:107820000C94513C0C94513C0C94513C0C94513CA4
:107830000C94513C0C94513C0C94513C0C94513C94
:107840000C94513C0C94513C0C94513C0C94513C84
:107850000C94513C0C94513C0C94513C0C94513C74
:107860000C94513C0C94513C11241FBECFEFD8E036
:10787000DEBFCDBF11E0A0E0B1E0ECE9FFE702C060
:1078800005900D92A230B107D9F712E0A2E0B1E065
:1078900001C01D92AD30B107E1F70E942D3D0C945F
:1078A000CC3F0C94003C982F959595959595959582
:1078B000905D8F708A307CF0282F295A8091C0000B
:1078C00085FFFCCF9093C6008091C00085FFFCCF60
:1078D0002093C6000895282F205DF0CF982F809127
:1078E000C00085FFFCCF9093C6000895EF92FF92F1
:1078F0000F931F93EE24FF2487018091C00087FD22
:1079000017C00894E11CF11C011D111D81E4E8164B
:1079100082E4F8068FE0080780E0180770F3E09132
:107920000401F091050109958091C00087FFE9CF1E
:107930008091C6001F910F91FF90EF9008950E94D3
:10794000763C982F8091C00085FFFCCF9093C600B5
:1079500091362CF490330CF09053892F089597555D
:10796000892F08951F930E949F3C182F0E949F3CCF
:107970001295107F810F1F9108951F93182F882350
:1079800021F00E94763C1150E1F71F9108951F935A
:10799000182F0E94763C803249F0809103018F5F5E
:1079A000809303018530C1F01F9108958091C0003C
:1079B00085FFFCCF84E18093C6008091C00085FFE5
:1079C000FCCF1093C6008091C00085FFFCCF80E102
:1079D0008093C6001F910895E0910401F091050184
:1079E00009951F9108950E94763C803241F0809164
:1079F00003018F5F80930301853081F008958091AA
:107A0000C00085FFFCCF84E18093C6008091C00058
:107A100085FFFCCF80E18093C6000895E0910401CA
:107A2000F09105010995089540E951E08823A1F0FE
:107A30002D9A28EE33E0FA013197F1F721503040CA
:107A4000D1F72D9828EE33E0FA013197F1F7215064
:107A50003040D1F7815061F708953F924F925F9285
:107A60006F927F928F929F92AF92BF92CF92DF924E
:107A7000EF92FF920F931F93CF93DF93000080E16B
:107A80008093C4001092C50088E18093C10086E015
:107A90008093C2005098589A259A81E00E94143D24
:107AA00024E1F22E9EE1E92E85E9D82E0FE0C02ECA
:107AB00010E1B12EAA24A394B1E49B2EA6E58A2E50
:107AC000F2E57F2EE0E26E2E79E4572E63E5462E36
:107AD00050E5352E0E94763C8033B1F18133B9F107
:107AE000803409F46FC0813409F476C0823409F41B
:107AF00085C0853409F488C0803531F1823521F1A3
:107B0000813511F1853509F485C0863509F48DC0BC
:107B1000843609F496C0843709F403C1853709F423
:107B200072C1863709F466C0809103018F5F80932C
:107B30000301853079F6E0910401F0910501099582
:107B40000E94763C803351F60E94F33CC3CF0E94E2
:107B5000763C803249F78091C00085FFFCCFF092DF
:107B6000C6008091C00085FFFCCF9092C600809136
:107B7000C00085FFFCCF8092C6008091C00085FFC9
:107B8000FCCF7092C6008091C00085FFFCCF609250
:107B9000C6008091C00085FFFCCF5092C600809146
:107BA000C00085FFFCCF4092C6008091C00085FFD9
:107BB000FCCF3092C6008091C00085FFFCCFB09210
:107BC000C60088CF0E94763C863808F4BDCF0E945C
:107BD000763C0E94F33C7ECF0E94763C803809F4CC
:107BE0009CC0813809F40BC1823809F43CC1883942
:107BF00009F48FC080E00E94C73C6CCF84E10E94F2
:107C0000BD3C0E94F33C66CF85E00E94BD3C0E94D3
:107C1000F33C60CF0E94763C809306010E94763C44
:107C2000809307010E94F33C55CF0E94763C80333D
:107C300009F41DC183E00E94BD3C80E00E94C73C66
:107C400049CF0E94763C809309020E94763C809343
:107C5000080280910C028E7F80930C020E94763C79
:107C6000853409F415C18091080290910902892B8D
:107C700089F000E010E00E94763CF801E85FFE4FDA
:107C800080830F5F1F4F80910802909109020817AF
:107C9000190788F30E94763C803209F045CF809125
:107CA0000C0280FF01C16091060170910701660F0F
:107CB000771F7093070160930601A0910802B091AD
:107CC00009021097C9F0E8E0F1E09B01AD014E0F09
:107CD0005F1FF999FECF32BD21BD819180BDFA9A17
:107CE000F99A2F5F3F4FE417F50799F76A0F7B1F4B
:107CF00070930701609306018091C00085FFFCCF5F
:107D0000F092C6008091C00085FFFCCFB092C60003
:107D1000E1CE83E00E94C73CDDCE82E00E94C73CFA
:107D2000D9CE0E94763C809309020E94763C8093D3
:107D300008028091060190910701880F991F909386
:107D40000701809306010E94763C853409F4A6C0A1
:107D500080910C028E7F80930C020E94763C8032D0
:107D600009F0B8CE8091C00085FFFCCFF092C6002C
:107D7000609108027091090261157105B9F140E046
:107D800050E080910C02A82FA170B82FB27011C0E2
:107D9000BB2309F45CC0E0910601F0910701319624
:107DA000F0930701E09306014F5F5F4F46175707B7
:107DB000E8F4AA2369F3F999FECF209106013091E6
:107DC000070132BD21BDF89A90B58091C00085FFB2
:107DD000FCCF9093C6002F5F3F4F30930701209355
:107DE00006014F5F5F4F4617570718F38091C00099
:107DF00085FDE5CE8091C00085FFF8CFE0CE81E023
:107E00000E94C73C67CE0E94763C803209F08CCE3F
:107E10008091C00085FFFCCFF092C6008091C00029
:107E200085FFFCCFE092C6008091C00085FFFCCFAB
:107E3000D092C6008091C00085FFFCCFC092C600E2
:107E40008091C00085FFFCCFB092C60043CEE09188
:107E50000601F091070194918091C00085FFFCCF4D
:107E60009093C6009CCF80E10E94C73C33CE0E9415
:107E7000763C0E94763C182F0E94763C112309F430
:107E800083C0113009F484C08FE00E94C73C22CE29
:107E900080910C02816080930C02E5CE80910C02EF
:107EA000816080930C0259CF809107018823880F4D
:107EB000880B8A2180930B02809106019091070123
:107EC000880F991F90930701809306018091080203
:107ED00080FF09C080910802909109020196909359
:107EE000090280930802F894F999FECF1127E091D6
:107EF0000601F0910701C8E0D1E08091080290915D
:107F00000902103091F40091570001700130D9F34B
:107F100003E000935700E89500915700017001308D
:107F2000D9F301E100935700E89509901990009169
:107F3000570001700130D9F301E000935700E89534
:107F40001395103498F011270091570001700130FB
:107F5000D9F305E000935700E895009157000170B0
:107F60000130D9F301E100935700E895329602976A
:107F700009F0C7CF103011F00296E5CF112480919F
:107F8000C00085FFB9CEBCCE8EE10E94C73CA2CD19
:0C7F900085E90E94C73C9ECDF894FFCF0D
:027F9C00800063
:040000030000780081
:00000001FF